{
  "_format": "hh-sol-artifact-1",
  "contractName": "TroveManager",
  "sourceName": "contracts/TroveManager.sol",
  "abi": [
    {
      "anonymous": false,
      "inputs": [
        {
          "indexed": false,
          "internalType": "address",
          "name": "_activePoolAddress",
          "type": "address"
        }
      ],
      "name": "ActivePoolAddressChanged",
      "type": "event"
    },
    {
      "anonymous": false,
      "inputs": [
        {
          "indexed": false,
          "internalType": "uint256",
          "name": "_baseRate",
          "type": "uint256"
        }
      ],
      "name": "BaseRateUpdated",
      "type": "event"
    },
    {
      "anonymous": false,
      "inputs": [
        {
          "indexed": false,
          "internalType": "address",
          "name": "_newBorrowerOperationsAddress",
          "type": "address"
        }
      ],
      "name": "BorrowerOperationsAddressChanged",
      "type": "event"
    },
    {
      "anonymous": false,
      "inputs": [
        {
          "indexed": false,
          "internalType": "address",
          "name": "_collSurplusPoolAddress",
          "type": "address"
        }
      ],
      "name": "CollSurplusPoolAddressChanged",
      "type": "event"
    },
    {
      "anonymous": false,
      "inputs": [
        {
          "indexed": false,
          "internalType": "address",
          "name": "_defaultPoolAddress",
          "type": "address"
        }
      ],
      "name": "DefaultPoolAddressChanged",
      "type": "event"
    },
    {
      "anonymous": false,
      "inputs": [
        {
          "indexed": false,
          "internalType": "address",
          "name": "_gasPoolAddress",
          "type": "address"
        }
      ],
      "name": "GasPoolAddressChanged",
      "type": "event"
    },
    {
      "anonymous": false,
      "inputs": [
        {
          "indexed": false,
          "internalType": "address",
          "name": "_lqtyStakingAddress",
          "type": "address"
        }
      ],
      "name": "LQTYStakingAddressChanged",
      "type": "event"
    },
    {
      "anonymous": false,
      "inputs": [
        {
          "indexed": false,
          "internalType": "uint256",
          "name": "_L_ETH",
          "type": "uint256"
        },
        {
          "indexed": false,
          "internalType": "uint256",
          "name": "_L_LUSDDebt",
          "type": "uint256"
        }
      ],
      "name": "LTermsUpdated",
      "type": "event"
    },
    {
      "anonymous": false,
      "inputs": [
        {
          "indexed": false,
          "internalType": "address",
          "name": "_newLUSDTokenAddress",
          "type": "address"
        }
      ],
      "name": "LUSDTokenAddressChanged",
      "type": "event"
    },
    {
      "anonymous": false,
      "inputs": [
        {
          "indexed": false,
          "internalType": "uint256",
          "name": "_lastFeeOpTime",
          "type": "uint256"
        }
      ],
      "name": "LastFeeOpTimeUpdated",
      "type": "event"
    },
    {
      "anonymous": false,
      "inputs": [
        {
          "indexed": false,
          "internalType": "uint256",
          "name": "_liquidatedDebt",
          "type": "uint256"
        },
        {
          "indexed": false,
          "internalType": "uint256",
          "name": "_liquidatedColl",
          "type": "uint256"
        },
        {
          "indexed": false,
          "internalType": "uint256",
          "name": "_collGasCompensation",
          "type": "uint256"
        },
        {
          "indexed": false,
          "internalType": "uint256",
          "name": "_LUSDGasCompensation",
          "type": "uint256"
        }
      ],
      "name": "Liquidation",
      "type": "event"
    },
    {
      "anonymous": false,
      "inputs": [
        {
          "indexed": true,
          "internalType": "address",
          "name": "previousOwner",
          "type": "address"
        },
        {
          "indexed": true,
          "internalType": "address",
          "name": "newOwner",
          "type": "address"
        }
      ],
      "name": "OwnershipTransferred",
      "type": "event"
    },
    {
      "anonymous": false,
      "inputs": [
        {
          "indexed": false,
          "internalType": "address",
          "name": "_newPriceFeedAddress",
          "type": "address"
        }
      ],
      "name": "PriceFeedAddressChanged",
      "type": "event"
    },
    {
      "anonymous": false,
      "inputs": [
        {
          "indexed": false,
          "internalType": "uint256",
          "name": "_attemptedLUSDAmount",
          "type": "uint256"
        },
        {
          "indexed": false,
          "internalType": "uint256",
          "name": "_actualLUSDAmount",
          "type": "uint256"
        },
        {
          "indexed": false,
          "internalType": "uint256",
          "name": "_ETHSent",
          "type": "uint256"
        },
        {
          "indexed": false,
          "internalType": "uint256",
          "name": "_ETHFee",
          "type": "uint256"
        }
      ],
      "name": "Redemption",
      "type": "event"
    },
    {
      "anonymous": false,
      "inputs": [
        {
          "indexed": false,
          "internalType": "address",
          "name": "_sortedTrovesAddress",
          "type": "address"
        }
      ],
      "name": "SortedTrovesAddressChanged",
      "type": "event"
    },
    {
      "anonymous": false,
      "inputs": [
        {
          "indexed": false,
          "internalType": "address",
          "name": "_stabilityPoolAddress",
          "type": "address"
        }
      ],
      "name": "StabilityPoolAddressChanged",
      "type": "event"
    },
    {
      "anonymous": false,
      "inputs": [
        {
          "indexed": false,
          "internalType": "uint256",
          "name": "_totalStakesSnapshot",
          "type": "uint256"
        },
        {
          "indexed": false,
          "internalType": "uint256",
          "name": "_totalCollateralSnapshot",
          "type": "uint256"
        }
      ],
      "name": "SystemSnapshotsUpdated",
      "type": "event"
    },
    {
      "anonymous": false,
      "inputs": [
        {
          "indexed": false,
          "internalType": "uint256",
          "name": "_newTotalStakes",
          "type": "uint256"
        }
      ],
      "name": "TotalStakesUpdated",
      "type": "event"
    },
    {
      "anonymous": false,
      "inputs": [
        {
          "indexed": false,
          "internalType": "address",
          "name": "_borrower",
          "type": "address"
        },
        {
          "indexed": false,
          "internalType": "uint256",
          "name": "_newIndex",
          "type": "uint256"
        }
      ],
      "name": "TroveIndexUpdated",
      "type": "event"
    },
    {
      "anonymous": false,
      "inputs": [
        {
          "indexed": true,
          "internalType": "address",
          "name": "_borrower",
          "type": "address"
        },
        {
          "indexed": false,
          "internalType": "uint256",
          "name": "_debt",
          "type": "uint256"
        },
        {
          "indexed": false,
          "internalType": "uint256",
          "name": "_coll",
          "type": "uint256"
        },
        {
          "indexed": false,
          "internalType": "enum TroveManager.TroveManagerOperation",
          "name": "_operation",
          "type": "uint8"
        }
      ],
      "name": "TroveLiquidated",
      "type": "event"
    },
    {
      "anonymous": false,
      "inputs": [
        {
          "indexed": false,
          "internalType": "uint256",
          "name": "_L_ETH",
          "type": "uint256"
        },
        {
          "indexed": false,
          "internalType": "uint256",
          "name": "_L_LUSDDebt",
          "type": "uint256"
        }
      ],
      "name": "TroveSnapshotsUpdated",
      "type": "event"
    },
    {
      "anonymous": false,
      "inputs": [
        {
          "indexed": true,
          "internalType": "address",
          "name": "_borrower",
          "type": "address"
        },
        {
          "indexed": false,
          "internalType": "uint256",
          "name": "_debt",
          "type": "uint256"
        },
        {
          "indexed": false,
          "internalType": "uint256",
          "name": "_coll",
          "type": "uint256"
        },
        {
          "indexed": false,
          "internalType": "uint256",
          "name": "_stake",
          "type": "uint256"
        },
        {
          "indexed": false,
          "internalType": "enum TroveManager.TroveManagerOperation",
          "name": "_operation",
          "type": "uint8"
        }
      ],
      "name": "TroveUpdated",
      "type": "event"
    },
    {
      "inputs": [],
      "name": "BETA",
      "outputs": [
        {
          "internalType": "uint256",
          "name": "",
          "type": "uint256"
        }
      ],
      "stateMutability": "view",
      "type": "function"
    },
    {
      "inputs": [],
      "name": "BORROWING_FEE_FLOOR",
      "outputs": [
        {
          "internalType": "uint256",
          "name": "",
          "type": "uint256"
        }
      ],
      "stateMutability": "view",
      "type": "function"
    },
    {
      "inputs": [],
      "name": "CCR",
      "outputs": [
        {
          "internalType": "uint256",
          "name": "",
          "type": "uint256"
        }
      ],
      "stateMutability": "view",
      "type": "function"
    },
    {
      "inputs": [],
      "name": "DECIMAL_PRECISION",
      "outputs": [
        {
          "internalType": "uint256",
          "name": "",
          "type": "uint256"
        }
      ],
      "stateMutability": "view",
      "type": "function"
    },
    {
      "inputs": [],
      "name": "LUSD_GAS_COMPENSATION",
      "outputs": [
        {
          "internalType": "uint256",
          "name": "",
          "type": "uint256"
        }
      ],
      "stateMutability": "view",
      "type": "function"
    },
    {
      "inputs": [],
      "name": "L_ETH",
      "outputs": [
        {
          "internalType": "uint256",
          "name": "",
          "type": "uint256"
        }
      ],
      "stateMutability": "view",
      "type": "function"
    },
    {
      "inputs": [],
      "name": "L_LUSDDebt",
      "outputs": [
        {
          "internalType": "uint256",
          "name": "",
          "type": "uint256"
        }
      ],
      "stateMutability": "view",
      "type": "function"
    },
    {
      "inputs": [],
      "name": "MAX_BORROWING_FEE",
      "outputs": [
        {
          "internalType": "uint256",
          "name": "",
          "type": "uint256"
        }
      ],
      "stateMutability": "view",
      "type": "function"
    },
    {
      "inputs": [],
      "name": "MCR",
      "outputs": [
        {
          "internalType": "uint256",
          "name": "",
          "type": "uint256"
        }
      ],
      "stateMutability": "view",
      "type": "function"
    },
    {
      "inputs": [],
      "name": "MINUTE_DECAY_FACTOR",
      "outputs": [
        {
          "internalType": "uint256",
          "name": "",
          "type": "uint256"
        }
      ],
      "stateMutability": "view",
      "type": "function"
    },
    {
      "inputs": [],
      "name": "MIN_NET_DEBT",
      "outputs": [
        {
          "internalType": "uint256",
          "name": "",
          "type": "uint256"
        }
      ],
      "stateMutability": "view",
      "type": "function"
    },
    {
      "inputs": [],
      "name": "NAME",
      "outputs": [
        {
          "internalType": "string",
          "name": "",
          "type": "string"
        }
      ],
      "stateMutability": "view",
      "type": "function"
    },
    {
      "inputs": [],
      "name": "PERCENT_DIVISOR",
      "outputs": [
        {
          "internalType": "uint256",
          "name": "",
          "type": "uint256"
        }
      ],
      "stateMutability": "view",
      "type": "function"
    },
    {
      "inputs": [],
      "name": "REDEMPTION_FEE_FLOOR",
      "outputs": [
        {
          "internalType": "uint256",
          "name": "",
          "type": "uint256"
        }
      ],
      "stateMutability": "view",
      "type": "function"
    },
    {
      "inputs": [],
      "name": "SECONDS_IN_ONE_MINUTE",
      "outputs": [
        {
          "internalType": "uint256",
          "name": "",
          "type": "uint256"
        }
      ],
      "stateMutability": "view",
      "type": "function"
    },
    {
      "inputs": [
        {
          "internalType": "uint256",
          "name": "",
          "type": "uint256"
        }
      ],
      "name": "TroveOwners",
      "outputs": [
        {
          "internalType": "address",
          "name": "",
          "type": "address"
        }
      ],
      "stateMutability": "view",
      "type": "function"
    },
    {
      "inputs": [
        {
          "internalType": "address",
          "name": "",
          "type": "address"
        }
      ],
      "name": "Troves",
      "outputs": [
        {
          "internalType": "uint256",
          "name": "debt",
          "type": "uint256"
        },
        {
          "internalType": "uint256",
          "name": "coll",
          "type": "uint256"
        },
        {
          "internalType": "uint256",
          "name": "stake",
          "type": "uint256"
        },
        {
          "internalType": "enum TroveManager.Status",
          "name": "status",
          "type": "uint8"
        },
        {
          "internalType": "uint128",
          "name": "arrayIndex",
          "type": "uint128"
        }
      ],
      "stateMutability": "view",
      "type": "function"
    },
    {
      "inputs": [],
      "name": "_100pct",
      "outputs": [
        {
          "internalType": "uint256",
          "name": "",
          "type": "uint256"
        }
      ],
      "stateMutability": "view",
      "type": "function"
    },
    {
      "inputs": [],
      "name": "activePool",
      "outputs": [
        {
          "internalType": "contract IActivePool",
          "name": "",
          "type": "address"
        }
      ],
      "stateMutability": "view",
      "type": "function"
    },
    {
      "inputs": [
        {
          "internalType": "address",
          "name": "_borrower",
          "type": "address"
        }
      ],
      "name": "addTroveOwnerToArray",
      "outputs": [
        {
          "internalType": "uint256",
          "name": "index",
          "type": "uint256"
        }
      ],
      "stateMutability": "nonpayable",
      "type": "function"
    },
    {
      "inputs": [
        {
          "internalType": "address",
          "name": "_borrower",
          "type": "address"
        }
      ],
      "name": "applyPendingRewards",
      "outputs": [],
      "stateMutability": "nonpayable",
      "type": "function"
    },
    {
      "inputs": [],
      "name": "baseRate",
      "outputs": [
        {
          "internalType": "uint256",
          "name": "",
          "type": "uint256"
        }
      ],
      "stateMutability": "view",
      "type": "function"
    },
    {
      "inputs": [
        {
          "internalType": "address[]",
          "name": "_troveArray",
          "type": "address[]"
        }
      ],
      "name": "batchLiquidateTroves",
      "outputs": [],
      "stateMutability": "nonpayable",
      "type": "function"
    },
    {
      "inputs": [],
      "name": "borrowerOperationsAddress",
      "outputs": [
        {
          "internalType": "address",
          "name": "",
          "type": "address"
        }
      ],
      "stateMutability": "view",
      "type": "function"
    },
    {
      "inputs": [
        {
          "internalType": "uint256",
          "name": "_price",
          "type": "uint256"
        }
      ],
      "name": "checkRecoveryMode",
      "outputs": [
        {
          "internalType": "bool",
          "name": "",
          "type": "bool"
        }
      ],
      "stateMutability": "view",
      "type": "function"
    },
    {
      "inputs": [
        {
          "internalType": "address",
          "name": "_borrower",
          "type": "address"
        }
      ],
      "name": "closeTrove",
      "outputs": [],
      "stateMutability": "nonpayable",
      "type": "function"
    },
    {
      "inputs": [],
      "name": "decayBaseRateFromBorrowing",
      "outputs": [],
      "stateMutability": "nonpayable",
      "type": "function"
    },
    {
      "inputs": [
        {
          "internalType": "address",
          "name": "_borrower",
          "type": "address"
        },
        {
          "internalType": "uint256",
          "name": "_collDecrease",
          "type": "uint256"
        }
      ],
      "name": "decreaseTroveColl",
      "outputs": [
        {
          "internalType": "uint256",
          "name": "",
          "type": "uint256"
        }
      ],
      "stateMutability": "nonpayable",
      "type": "function"
    },
    {
      "inputs": [
        {
          "internalType": "address",
          "name": "_borrower",
          "type": "address"
        },
        {
          "internalType": "uint256",
          "name": "_debtDecrease",
          "type": "uint256"
        }
      ],
      "name": "decreaseTroveDebt",
      "outputs": [
        {
          "internalType": "uint256",
          "name": "",
          "type": "uint256"
        }
      ],
      "stateMutability": "nonpayable",
      "type": "function"
    },
    {
      "inputs": [],
      "name": "defaultPool",
      "outputs": [
        {
          "internalType": "contract IDefaultPool",
          "name": "",
          "type": "address"
        }
      ],
      "stateMutability": "view",
      "type": "function"
    },
    {
      "inputs": [
        {
          "internalType": "uint256",
          "name": "_LUSDDebt",
          "type": "uint256"
        }
      ],
      "name": "getBorrowingFee",
      "outputs": [
        {
          "internalType": "uint256",
          "name": "",
          "type": "uint256"
        }
      ],
      "stateMutability": "view",
      "type": "function"
    },
    {
      "inputs": [
        {
          "internalType": "uint256",
          "name": "_LUSDDebt",
          "type": "uint256"
        }
      ],
      "name": "getBorrowingFeeWithDecay",
      "outputs": [
        {
          "internalType": "uint256",
          "name": "",
          "type": "uint256"
        }
      ],
      "stateMutability": "view",
      "type": "function"
    },
    {
      "inputs": [],
      "name": "getBorrowingRate",
      "outputs": [
        {
          "internalType": "uint256",
          "name": "",
          "type": "uint256"
        }
      ],
      "stateMutability": "view",
      "type": "function"
    },
    {
      "inputs": [],
      "name": "getBorrowingRateWithDecay",
      "outputs": [
        {
          "internalType": "uint256",
          "name": "",
          "type": "uint256"
        }
      ],
      "stateMutability": "view",
      "type": "function"
    },
    {
      "inputs": [
        {
          "internalType": "address",
          "name": "_borrower",
          "type": "address"
        },
        {
          "internalType": "uint256",
          "name": "_price",
          "type": "uint256"
        }
      ],
      "name": "getCurrentICR",
      "outputs": [
        {
          "internalType": "uint256",
          "name": "",
          "type": "uint256"
        }
      ],
      "stateMutability": "view",
      "type": "function"
    },
    {
      "inputs": [
        {
          "internalType": "address",
          "name": "_borrower",
          "type": "address"
        }
      ],
      "name": "getEntireDebtAndColl",
      "outputs": [
        {
          "internalType": "uint256",
          "name": "debt",
          "type": "uint256"
        },
        {
          "internalType": "uint256",
          "name": "coll",
          "type": "uint256"
        },
        {
          "internalType": "uint256",
          "name": "pendingLUSDDebtReward",
          "type": "uint256"
        },
        {
          "internalType": "uint256",
          "name": "pendingETHReward",
          "type": "uint256"
        }
      ],
      "stateMutability": "view",
      "type": "function"
    },
    {
      "inputs": [],
      "name": "getEntireSystemColl",
      "outputs": [
        {
          "internalType": "uint256",
          "name": "entireSystemColl",
          "type": "uint256"
        }
      ],
      "stateMutability": "view",
      "type": "function"
    },
    {
      "inputs": [],
      "name": "getEntireSystemDebt",
      "outputs": [
        {
          "internalType": "uint256",
          "name": "entireSystemDebt",
          "type": "uint256"
        }
      ],
      "stateMutability": "view",
      "type": "function"
    },
    {
      "inputs": [
        {
          "internalType": "address",
          "name": "_borrower",
          "type": "address"
        }
      ],
      "name": "getNominalICR",
      "outputs": [
        {
          "internalType": "uint256",
          "name": "",
          "type": "uint256"
        }
      ],
      "stateMutability": "view",
      "type": "function"
    },
    {
      "inputs": [
        {
          "internalType": "address",
          "name": "_borrower",
          "type": "address"
        }
      ],
      "name": "getPendingETHReward",
      "outputs": [
        {
          "internalType": "uint256",
          "name": "",
          "type": "uint256"
        }
      ],
      "stateMutability": "view",
      "type": "function"
    },
    {
      "inputs": [
        {
          "internalType": "address",
          "name": "_borrower",
          "type": "address"
        }
      ],
      "name": "getPendingLUSDDebtReward",
      "outputs": [
        {
          "internalType": "uint256",
          "name": "",
          "type": "uint256"
        }
      ],
      "stateMutability": "view",
      "type": "function"
    },
    {
      "inputs": [
        {
          "internalType": "uint256",
          "name": "_ETHDrawn",
          "type": "uint256"
        }
      ],
      "name": "getRedemptionFeeWithDecay",
      "outputs": [
        {
          "internalType": "uint256",
          "name": "",
          "type": "uint256"
        }
      ],
      "stateMutability": "view",
      "type": "function"
    },
    {
      "inputs": [],
      "name": "getRedemptionRate",
      "outputs": [
        {
          "internalType": "uint256",
          "name": "",
          "type": "uint256"
        }
      ],
      "stateMutability": "view",
      "type": "function"
    },
    {
      "inputs": [],
      "name": "getRedemptionRateWithDecay",
      "outputs": [
        {
          "internalType": "uint256",
          "name": "",
          "type": "uint256"
        }
      ],
      "stateMutability": "view",
      "type": "function"
    },
    {
      "inputs": [
        {
          "internalType": "uint256",
          "name": "_price",
          "type": "uint256"
        }
      ],
      "name": "getTCR",
      "outputs": [
        {
          "internalType": "uint256",
          "name": "",
          "type": "uint256"
        }
      ],
      "stateMutability": "view",
      "type": "function"
    },
    {
      "inputs": [
        {
          "internalType": "address",
          "name": "_borrower",
          "type": "address"
        }
      ],
      "name": "getTroveColl",
      "outputs": [
        {
          "internalType": "uint256",
          "name": "",
          "type": "uint256"
        }
      ],
      "stateMutability": "view",
      "type": "function"
    },
    {
      "inputs": [
        {
          "internalType": "address",
          "name": "_borrower",
          "type": "address"
        }
      ],
      "name": "getTroveDebt",
      "outputs": [
        {
          "internalType": "uint256",
          "name": "",
          "type": "uint256"
        }
      ],
      "stateMutability": "view",
      "type": "function"
    },
    {
      "inputs": [
        {
          "internalType": "uint256",
          "name": "_index",
          "type": "uint256"
        }
      ],
      "name": "getTroveFromTroveOwnersArray",
      "outputs": [
        {
          "internalType": "address",
          "name": "",
          "type": "address"
        }
      ],
      "stateMutability": "view",
      "type": "function"
    },
    {
      "inputs": [],
      "name": "getTroveOwnersCount",
      "outputs": [
        {
          "internalType": "uint256",
          "name": "",
          "type": "uint256"
        }
      ],
      "stateMutability": "view",
      "type": "function"
    },
    {
      "inputs": [
        {
          "internalType": "address",
          "name": "_borrower",
          "type": "address"
        }
      ],
      "name": "getTroveStake",
      "outputs": [
        {
          "internalType": "uint256",
          "name": "",
          "type": "uint256"
        }
      ],
      "stateMutability": "view",
      "type": "function"
    },
    {
      "inputs": [
        {
          "internalType": "address",
          "name": "_borrower",
          "type": "address"
        }
      ],
      "name": "getTroveStatus",
      "outputs": [
        {
          "internalType": "uint256",
          "name": "",
          "type": "uint256"
        }
      ],
      "stateMutability": "view",
      "type": "function"
    },
    {
      "inputs": [
        {
          "internalType": "address",
          "name": "_borrower",
          "type": "address"
        }
      ],
      "name": "hasPendingRewards",
      "outputs": [
        {
          "internalType": "bool",
          "name": "",
          "type": "bool"
        }
      ],
      "stateMutability": "view",
      "type": "function"
    },
    {
      "inputs": [
        {
          "internalType": "address",
          "name": "_borrower",
          "type": "address"
        },
        {
          "internalType": "uint256",
          "name": "_collIncrease",
          "type": "uint256"
        }
      ],
      "name": "increaseTroveColl",
      "outputs": [
        {
          "internalType": "uint256",
          "name": "",
          "type": "uint256"
        }
      ],
      "stateMutability": "nonpayable",
      "type": "function"
    },
    {
      "inputs": [
        {
          "internalType": "address",
          "name": "_borrower",
          "type": "address"
        },
        {
          "internalType": "uint256",
          "name": "_debtIncrease",
          "type": "uint256"
        }
      ],
      "name": "increaseTroveDebt",
      "outputs": [
        {
          "internalType": "uint256",
          "name": "",
          "type": "uint256"
        }
      ],
      "stateMutability": "nonpayable",
      "type": "function"
    },
    {
      "inputs": [],
      "name": "initialize",
      "outputs": [],
      "stateMutability": "nonpayable",
      "type": "function"
    },
    {
      "inputs": [],
      "name": "isOwner",
      "outputs": [
        {
          "internalType": "bool",
          "name": "",
          "type": "bool"
        }
      ],
      "stateMutability": "view",
      "type": "function"
    },
    {
      "inputs": [],
      "name": "lastETHError_Redistribution",
      "outputs": [
        {
          "internalType": "uint256",
          "name": "",
          "type": "uint256"
        }
      ],
      "stateMutability": "view",
      "type": "function"
    },
    {
      "inputs": [],
      "name": "lastFeeOperationTime",
      "outputs": [
        {
          "internalType": "uint256",
          "name": "",
          "type": "uint256"
        }
      ],
      "stateMutability": "view",
      "type": "function"
    },
    {
      "inputs": [],
      "name": "lastLUSDDebtError_Redistribution",
      "outputs": [
        {
          "internalType": "uint256",
          "name": "",
          "type": "uint256"
        }
      ],
      "stateMutability": "view",
      "type": "function"
    },
    {
      "inputs": [
        {
          "internalType": "address",
          "name": "_borrower",
          "type": "address"
        }
      ],
      "name": "liquidate",
      "outputs": [],
      "stateMutability": "nonpayable",
      "type": "function"
    },
    {
      "inputs": [
        {
          "internalType": "uint256",
          "name": "_n",
          "type": "uint256"
        }
      ],
      "name": "liquidateTroves",
      "outputs": [],
      "stateMutability": "nonpayable",
      "type": "function"
    },
    {
      "inputs": [],
      "name": "lqtyStaking",
      "outputs": [
        {
          "internalType": "address",
          "name": "",
          "type": "address"
        }
      ],
      "stateMutability": "view",
      "type": "function"
    },
    {
      "inputs": [],
      "name": "lusdToken",
      "outputs": [
        {
          "internalType": "contract ILUSDToken",
          "name": "",
          "type": "address"
        }
      ],
      "stateMutability": "view",
      "type": "function"
    },
    {
      "inputs": [],
      "name": "owner",
      "outputs": [
        {
          "internalType": "address",
          "name": "",
          "type": "address"
        }
      ],
      "stateMutability": "view",
      "type": "function"
    },
    {
      "inputs": [],
      "name": "priceFeed",
      "outputs": [
        {
          "internalType": "contract IPriceFeed",
          "name": "",
          "type": "address"
        }
      ],
      "stateMutability": "view",
      "type": "function"
    },
    {
      "inputs": [
        {
          "internalType": "uint256",
          "name": "_LUSDamount",
          "type": "uint256"
        },
        {
          "internalType": "address",
          "name": "_firstRedemptionHint",
          "type": "address"
        },
        {
          "internalType": "address",
          "name": "_upperPartialRedemptionHint",
          "type": "address"
        },
        {
          "internalType": "address",
          "name": "_lowerPartialRedemptionHint",
          "type": "address"
        },
        {
          "internalType": "uint256",
          "name": "_partialRedemptionHintNICR",
          "type": "uint256"
        },
        {
          "internalType": "uint256",
          "name": "_maxIterations",
          "type": "uint256"
        },
        {
          "internalType": "uint256",
          "name": "_maxFeePercentage",
          "type": "uint256"
        }
      ],
      "name": "redeemCollateral",
      "outputs": [],
      "stateMutability": "nonpayable",
      "type": "function"
    },
    {
      "inputs": [
        {
          "internalType": "address",
          "name": "_borrower",
          "type": "address"
        }
      ],
      "name": "removeStake",
      "outputs": [],
      "stateMutability": "nonpayable",
      "type": "function"
    },
    {
      "inputs": [
        {
          "internalType": "address",
          "name": "",
          "type": "address"
        }
      ],
      "name": "rewardSnapshots",
      "outputs": [
        {
          "internalType": "uint256",
          "name": "ETH",
          "type": "uint256"
        },
        {
          "internalType": "uint256",
          "name": "LUSDDebt",
          "type": "uint256"
        }
      ],
      "stateMutability": "view",
      "type": "function"
    },
    {
      "inputs": [
        {
          "internalType": "address",
          "name": "_borrowerOperationsAddress",
          "type": "address"
        },
        {
          "internalType": "address",
          "name": "_activePoolAddress",
          "type": "address"
        },
        {
          "internalType": "address",
          "name": "_defaultPoolAddress",
          "type": "address"
        },
        {
          "internalType": "address",
          "name": "_stabilityPoolAddress",
          "type": "address"
        },
        {
          "internalType": "address",
          "name": "_gasPoolAddress",
          "type": "address"
        },
        {
          "internalType": "address",
          "name": "_collSurplusPoolAddress",
          "type": "address"
        },
        {
          "internalType": "address",
          "name": "_priceFeedAddress",
          "type": "address"
        },
        {
          "internalType": "address",
          "name": "_lusdTokenAddress",
          "type": "address"
        },
        {
          "internalType": "address",
          "name": "_sortedTrovesAddress",
          "type": "address"
        },
        {
          "internalType": "address",
          "name": "",
          "type": "address"
        },
        {
          "internalType": "address",
          "name": "_lqtyStakingAddress",
          "type": "address"
        }
      ],
      "name": "setAddresses",
      "outputs": [],
      "stateMutability": "nonpayable",
      "type": "function"
    },
    {
      "inputs": [
        {
          "internalType": "address",
          "name": "_borrower",
          "type": "address"
        },
        {
          "internalType": "uint256",
          "name": "_num",
          "type": "uint256"
        }
      ],
      "name": "setTroveStatus",
      "outputs": [],
      "stateMutability": "nonpayable",
      "type": "function"
    },
    {
      "inputs": [],
      "name": "sortedTroves",
      "outputs": [
        {
          "internalType": "contract ISortedTroves",
          "name": "",
          "type": "address"
        }
      ],
      "stateMutability": "view",
      "type": "function"
    },
    {
      "inputs": [],
      "name": "stabilityPool",
      "outputs": [
        {
          "internalType": "contract IStabilityPool",
          "name": "",
          "type": "address"
        }
      ],
      "stateMutability": "view",
      "type": "function"
    },
    {
      "inputs": [],
      "name": "totalCollateralSnapshot",
      "outputs": [
        {
          "internalType": "uint256",
          "name": "",
          "type": "uint256"
        }
      ],
      "stateMutability": "view",
      "type": "function"
    },
    {
      "inputs": [],
      "name": "totalStakes",
      "outputs": [
        {
          "internalType": "uint256",
          "name": "",
          "type": "uint256"
        }
      ],
      "stateMutability": "view",
      "type": "function"
    },
    {
      "inputs": [],
      "name": "totalStakesSnapshot",
      "outputs": [
        {
          "internalType": "uint256",
          "name": "",
          "type": "uint256"
        }
      ],
      "stateMutability": "view",
      "type": "function"
    },
    {
      "inputs": [
        {
          "internalType": "address",
          "name": "newOwner",
          "type": "address"
        }
      ],
      "name": "transferOwnership",
      "outputs": [],
      "stateMutability": "nonpayable",
      "type": "function"
    },
    {
      "inputs": [
        {
          "internalType": "address",
          "name": "_borrower",
          "type": "address"
        }
      ],
      "name": "updateStakeAndTotalStakes",
      "outputs": [
        {
          "internalType": "uint256",
          "name": "",
          "type": "uint256"
        }
      ],
      "stateMutability": "nonpayable",
      "type": "function"
    },
    {
      "inputs": [
        {
          "internalType": "address",
          "name": "_borrower",
          "type": "address"
        }
      ],
      "name": "updateTroveRewardSnapshots",
      "outputs": [],
      "stateMutability": "nonpayable",
      "type": "function"
    }
  ],
  "bytecode": "0x60806040523480156200001157600080fd5b5061956080620000226000396000f3fe608060405234801561001057600080fd5b506004361061046a5760003560e01c8063797250e31161024c578063b83f91a211610146578063d5b35635116100c3578063f2fde38b11610087578063f2fde38b14611803578063f34862de14611847578063f36b24251461189f578063f92d3433146118bd578063fe2ba848146118db5761046a565b8063d5b3563514611681578063d66a2553146116c3578063d9a724441461171b578063dba1c5f214611789578063e2ac77b0146117a75761046a565b8063c7b554811161010a578063c7b554811461153d578063cbd138ae1461155b578063d293c7101461159f578063d380a37c14611601578063d3d6f8431461161f5761046a565b8063b83f91a21461139e578063b91af97c146113e8578063bcd3752614611455578063bf9befb114611501578063c52861f21461151f5761046a565b806396d711ff116101d4578063a3f4df7e11610198578063a3f4df7e146111ed578063ae91875414611270578063b0d8e181146112ba578063b7f8cf9b14611312578063b82f263d1461135c5761046a565b806396d711ff146110e75780639976cf45146111055780639dd233d214611167578063a20baee614611185578063a3a64017146111a35761046a565b80638129fc1c1161021b5780638129fc1c1461100f57806382fe3eb914611019578063887105d31461105d5780638da5cb5b1461107b5780638f32d59b146110c55761046a565b8063797250e314610e045780637985c5e414610e225780637f7dde4a14610fa7578063807d138d14610ff15761046a565b8063480cd5781161036857806364cee260116102e557806372fe25aa116102a957806372fe25aa14610cf2578063741bef1a14610d10578063756b253e14610d5a578063794e572414610dc8578063795d26c314610de65761046a565b806364cee26014610b46578063653d46e714610b9e57806366ca4a2114610bcc5780636ef6433814610bea57806372423c1714610c905761046a565b80635d6b480f1161032c5780635d6b480f14610a365780635d8c960914610a845780635dba4c4a14610adc57806361ec893d14610ae6578063631203b014610b045761046a565b8063480cd5781461093e5780634870dd9a1461099657806349eefeee146109b45780634e443d9e146109d25780635733d58f14610a185761046a565b80631e8b1c2b116103f65780632b11551a116103ba5780632b11551a146108325780632e86bbd8146108505780632f8655681461086e5780633cc74225146108b2578063477d66cf146108fc5761046a565b80631e8b1c2b146106c85780631f68f20a1461078057806321e378011461079e57806324092669146107f657806328d28b5b146108145761046a565b806312610e921161043d57806312610e921461053957806315d549f11461059b5780631673c79a146105f357806318f2817a146106525780631bf43555146106aa5761046a565b8063048c661d1461046f578063060d49a3146104b9578063071a7541146104d75780630b076557146104f5575b600080fd5b61047761191f565b604051808273ffffffffffffffffffffffffffffffffffffffff1673ffffffffffffffffffffffffffffffffffffffff16815260200191505060405180910390f35b6104c1611945565b6040518082815260200191505060405180910390f35b6104df61194b565b6040518082815260200191505060405180910390f35b6105376004803603602081101561050b57600080fd5b81019080803573ffffffffffffffffffffffffffffffffffffffff169060200190929190505050611950565b005b6105856004803603604081101561054f57600080fd5b81019080803573ffffffffffffffffffffffffffffffffffffffff169060200190929190803590602001909291905050506119a9565b6040518082815260200191505060405180910390f35b6105dd600480360360208110156105b157600080fd5b81019080803573ffffffffffffffffffffffffffffffffffffffff169060200190929190505050611a5d565b6040518082815260200191505060405180910390f35b6106356004803603602081101561060957600080fd5b81019080803573ffffffffffffffffffffffffffffffffffffffff169060200190929190505050611a89565b604051808381526020018281526020019250505060405180910390f35b6106946004803603602081101561066857600080fd5b81019080803573ffffffffffffffffffffffffffffffffffffffff169060200190929190505050611aad565b6040518082815260200191505060405180910390f35b6106b2611ac7565b6040518082815260200191505060405180910390f35b61077e600480360360208110156106de57600080fd5b81019080803590602001906401000000008111156106fb57600080fd5b82018360208201111561070d57600080fd5b8035906020019184602083028401116401000000008311171561072f57600080fd5b919080806020026020016040519081016040528093929190818152602001838360200280828437600081840152601f19601f820116905080830192505050505050509192919290505050611ad4565b005b610788611fd8565b6040518082815260200191505060405180910390f35b6107e0600480360360208110156107b457600080fd5b81019080803573ffffffffffffffffffffffffffffffffffffffff169060200190929190505050611fde565b6040518082815260200191505060405180910390f35b6107fe612042565b6040518082815260200191505060405180910390f35b61081c61205b565b6040518082815260200191505060405180910390f35b61083a612075565b6040518082815260200191505060405180910390f35b610858612087565b6040518082815260200191505060405180910390f35b6108b06004803603602081101561088457600080fd5b81019080803573ffffffffffffffffffffffffffffffffffffffff169060200190929190505050612093565b005b6108ba61213d565b604051808273ffffffffffffffffffffffffffffffffffffffff1673ffffffffffffffffffffffffffffffffffffffff16815260200191505060405180910390f35b6109286004803603602081101561091257600080fd5b8101908080359060200190929190505050612163565b6040518082815260200191505060405180910390f35b6109806004803603602081101561095457600080fd5b81019080803573ffffffffffffffffffffffffffffffffffffffff16906020019092919050505061217d565b6040518082815260200191505060405180910390f35b61099e6121c9565b6040518082815260200191505060405180910390f35b6109bc6121ce565b6040518082815260200191505060405180910390f35b6109fe600480360360208110156109e857600080fd5b81019080803590602001909291905050506121db565b604051808215151515815260200191505060405180910390f35b610a206121ed565b6040518082815260200191505060405180910390f35b610a8260048036036040811015610a4c57600080fd5b81019080803573ffffffffffffffffffffffffffffffffffffffff169060200190929190803590602001909291905050506121f9565b005b610ac660048036036020811015610a9a57600080fd5b81019080803573ffffffffffffffffffffffffffffffffffffffff169060200190929190505050612273565b6040518082815260200191505060405180910390f35b610ae46123de565b005b610aee61244d565b6040518082815260200191505060405180910390f35b610b3060048036036020811015610b1a57600080fd5b8101908080359060200190929190505050612452565b6040518082815260200191505060405180910390f35b610b8860048036036020811015610b5c57600080fd5b81019080803573ffffffffffffffffffffffffffffffffffffffff16906020019092919050505061246c565b6040518082815260200191505060405180910390f35b610bca60048036036020811015610bb457600080fd5b81019080803590602001909291905050506124b8565b005b610bd4612a6e565b6040518082815260200191505060405180910390f35b610c2c60048036036020811015610c0057600080fd5b81019080803573ffffffffffffffffffffffffffffffffffffffff169060200190929190505050612a85565b60405180868152602001858152602001848152602001836004811115610c4e57fe5b60ff168152602001826fffffffffffffffffffffffffffffffff166fffffffffffffffffffffffffffffffff1681526020019550505050505060405180910390f35b610cdc60048036036040811015610ca657600080fd5b81019080803573ffffffffffffffffffffffffffffffffffffffff16906020019092919080359060200190929190505050612ae4565b6040518082815260200191505060405180910390f35b610cfa612b98565b6040518082815260200191505060405180910390f35b610d18612ba4565b604051808273ffffffffffffffffffffffffffffffffffffffff1673ffffffffffffffffffffffffffffffffffffffff16815260200191505060405180910390f35b610d8660048036036020811015610d7057600080fd5b8101908080359060200190929190505050612bca565b604051808273ffffffffffffffffffffffffffffffffffffffff1673ffffffffffffffffffffffffffffffffffffffff16815260200191505060405180910390f35b610dd0612c06565b6040518082815260200191505060405180910390f35b610dee612c12565b6040518082815260200191505060405180910390f35b610e0c612d7a565b6040518082815260200191505060405180910390f35b610fa56004803603610160811015610e3957600080fd5b81019080803573ffffffffffffffffffffffffffffffffffffffff169060200190929190803573ffffffffffffffffffffffffffffffffffffffff169060200190929190803573ffffffffffffffffffffffffffffffffffffffff169060200190929190803573ffffffffffffffffffffffffffffffffffffffff169060200190929190803573ffffffffffffffffffffffffffffffffffffffff169060200190929190803573ffffffffffffffffffffffffffffffffffffffff169060200190929190803573ffffffffffffffffffffffffffffffffffffffff169060200190929190803573ffffffffffffffffffffffffffffffffffffffff169060200190929190803573ffffffffffffffffffffffffffffffffffffffff169060200190929190803573ffffffffffffffffffffffffffffffffffffffff169060200190929190803573ffffffffffffffffffffffffffffffffffffffff169060200190929190505050612d80565b005b610faf6134bf565b604051808273ffffffffffffffffffffffffffffffffffffffff1673ffffffffffffffffffffffffffffffffffffffff16815260200191505060405180910390f35b610ff96134e4565b6040518082815260200191505060405180910390f35b6110176134ea565b005b61105b6004803603602081101561102f57600080fd5b81019080803573ffffffffffffffffffffffffffffffffffffffff1690602001909291905050506135f5565b005b611065613609565b6040518082815260200191505060405180910390f35b611083613771565b604051808273ffffffffffffffffffffffffffffffffffffffff1673ffffffffffffffffffffffffffffffffffffffff16815260200191505060405180910390f35b6110cd61379b565b604051808215151515815260200191505060405180910390f35b6110ef6137f3565b6040518082815260200191505060405180910390f35b6111516004803603604081101561111b57600080fd5b81019080803573ffffffffffffffffffffffffffffffffffffffff169060200190929190803590602001909291905050506137f9565b6040518082815260200191505060405180910390f35b61116f6138ad565b6040518082815260200191505060405180910390f35b61118d6138b3565b6040518082815260200191505060405180910390f35b6111ab6138bf565b604051808273ffffffffffffffffffffffffffffffffffffffff1673ffffffffffffffffffffffffffffffffffffffff16815260200191505060405180910390f35b6111f56138e5565b6040518080602001828103825283818151815260200191508051906020019080838360005b8381101561123557808201518184015260208101905061121a565b50505050905090810190601f1680156112625780820380516001836020036101000a031916815260200191505b509250505060405180910390f35b61127861391e565b604051808273ffffffffffffffffffffffffffffffffffffffff1673ffffffffffffffffffffffffffffffffffffffff16815260200191505060405180910390f35b6112fc600480360360208110156112d057600080fd5b81019080803573ffffffffffffffffffffffffffffffffffffffff169060200190929190505050613944565b6040518082815260200191505060405180910390f35b61131a61396f565b604051808273ffffffffffffffffffffffffffffffffffffffff1673ffffffffffffffffffffffffffffffffffffffff16815260200191505060405180910390f35b6113886004803603602081101561137257600080fd5b8101908080359060200190929190505050613995565b6040518082815260200191505060405180910390f35b6113a66139a7565b604051808273ffffffffffffffffffffffffffffffffffffffff1673ffffffffffffffffffffffffffffffffffffffff16815260200191505060405180910390f35b61142a600480360360208110156113fe57600080fd5b81019080803573ffffffffffffffffffffffffffffffffffffffff1690602001909291905050506139cd565b6040518085815260200184815260200183815260200182815260200194505050505060405180910390f35b6114ff600480360360e081101561146b57600080fd5b8101908080359060200190929190803573ffffffffffffffffffffffffffffffffffffffff169060200190929190803573ffffffffffffffffffffffffffffffffffffffff169060200190929190803573ffffffffffffffffffffffffffffffffffffffff169060200190929190803590602001909291908035906020019092919080359060200190929190505050613aa4565b005b61150961458d565b6040518082815260200191505060405180910390f35b611527614593565b6040518082815260200191505060405180910390f35b6115456145aa565b6040518082815260200191505060405180910390f35b61159d6004803603602081101561157157600080fd5b81019080803573ffffffffffffffffffffffffffffffffffffffff1690602001909291905050506145b6565b005b6115eb600480360360408110156115b557600080fd5b81019080803573ffffffffffffffffffffffffffffffffffffffff169060200190929190803590602001909291905050506145cc565b6040518082815260200191505060405180910390f35b6116096145f9565b6040518082815260200191505060405180910390f35b61166b6004803603604081101561163557600080fd5b81019080803573ffffffffffffffffffffffffffffffffffffffff169060200190929190803590602001909291905050506145ff565b6040518082815260200191505060405180910390f35b6116ad6004803603602081101561169757600080fd5b81019080803590602001909291905050506146b3565b6040518082815260200191505060405180910390f35b611705600480360360208110156116d957600080fd5b81019080803573ffffffffffffffffffffffffffffffffffffffff1690602001909291905050506146cd565b6040518082815260200191505060405180910390f35b6117476004803603602081101561173157600080fd5b8101908080359060200190929190505050614719565b604051808273ffffffffffffffffffffffffffffffffffffffff1673ffffffffffffffffffffffffffffffffffffffff16815260200191505060405180910390f35b61179161475a565b6040518082815260200191505060405180910390f35b6117e9600480360360208110156117bd57600080fd5b81019080803573ffffffffffffffffffffffffffffffffffffffff169060200190929190505050614760565b604051808215151515815260200191505060405180910390f35b6118456004803603602081101561181957600080fd5b81019080803573ffffffffffffffffffffffffffffffffffffffff169060200190929190505050614827565b005b6118896004803603602081101561185d57600080fd5b81019080803573ffffffffffffffffffffffffffffffffffffffff1690602001909291905050506149e7565b6040518082815260200191505060405180910390f35b6118a7614b52565b6040518082815260200191505060405180910390f35b6118c5614b64565b6040518082815260200191505060405180910390f35b61191d600480360360208110156118f157600080fd5b81019080803573ffffffffffffffffffffffffffffffffffffffff169060200190929190505050614b7e565b005b600560009054906101000a900473ffffffffffffffffffffffffffffffffffffffff1681565b60165481565b600281565b611958614b92565b6119a66000809054906101000a900473ffffffffffffffffffffffffffffffffffffffff16600160009054906101000a900473ffffffffffffffffffffffffffffffffffffffff1683614c3a565b50565b60006119b3614b92565b6000611a0a83600d60008773ffffffffffffffffffffffffffffffffffffffff1673ffffffffffffffffffffffffffffffffffffffff16815260200190815260200160002060000154614ef990919063ffffffff16565b905080600d60008673ffffffffffffffffffffffffffffffffffffffff1673ffffffffffffffffffffffffffffffffffffffff168152602001908152602001600020600001819055508091505092915050565b6000611a67614b92565b611a7082614f43565b6fffffffffffffffffffffffffffffffff169050919050565b60136020528060005260406000206000915090508060000154908060010154905082565b6000611ab7614b92565b611ac082615044565b9050919050565b68056bc75e2d6310000081565b600081511415611b2f576040517f08c379a00000000000000000000000000000000000000000000000000000000081526004018080602001828103825260368152602001806193e66036913960400191505060405180910390fd5b60008060009054906101000a900473ffffffffffffffffffffffffffffffffffffffff1690506000600160009054906101000a900473ffffffffffffffffffffffffffffffffffffffff1690506000600560009054906101000a900473ffffffffffffffffffffffffffffffffffffffff169050611bab619016565b611bb3619047565b600260009054906101000a900473ffffffffffffffffffffffffffffffffffffffff1673ffffffffffffffffffffffffffffffffffffffff16630fdb11cf6040518163ffffffff1660e01b8152600401602060405180830381600087803b158015611c1d57600080fd5b505af1158015611c31573d6000803e3d6000fd5b505050506040513d6020811015611c4757600080fd5b81019080805190602001909291905050508260000181815250508273ffffffffffffffffffffffffffffffffffffffff16639bf2f1ac6040518163ffffffff1660e01b815260040160206040518083038186803b158015611ca757600080fd5b505afa158015611cbb573d6000803e3d6000fd5b505050506040513d6020811015611cd157600080fd5b8101908080519060200190929190505050826020018181525050611cf88260000151615192565b826040019015159081151581525050816040015115611d2d57611d268585846000015185602001518a6151b3565b9050611d45565b611d428585846000015185602001518a6154c5565b90505b6000816020015111611da2576040517f08c379a00000000000000000000000000000000000000000000000000000000081526004018080602001828103825260228152602001806194da6022913960400191505060405180910390fd5b8273ffffffffffffffffffffffffffffffffffffffff1663335525ad82608001518360a001516040518363ffffffff1660e01b81526004018083815260200182815260200192505050600060405180830381600087803b158015611e0557600080fd5b505af1158015611e19573d6000803e3d6000fd5b50505050611e3185858360c001518460e001516155e1565b60008161010001511115611f06578473ffffffffffffffffffffffffffffffffffffffff166364a197f3600760009054906101000a900473ffffffffffffffffffffffffffffffffffffffff168361010001516040518363ffffffff1660e01b8152600401808373ffffffffffffffffffffffffffffffffffffffff1673ffffffffffffffffffffffffffffffffffffffff16815260200182815260200192505050600060405180830381600087803b158015611eed57600080fd5b505af1158015611f01573d6000803e3d6000fd5b505050505b611f148582604001516158da565b8060200151826060018181525050611f54816101000151611f4683604001518460000151614ef990919063ffffffff16565b614ef990919063ffffffff16565b8260800181815250507f4152c73dd2614c4f9fc35e8c9cf16013cd588c75b49a4c1673ecffdcbcda940382606001518360800151836040015184606001516040518085815260200184815260200183815260200182815260200194505050505060405180910390a1611fd0853383606001518460400151615a83565b505050505050565b600b5481565b6000600d60008373ffffffffffffffffffffffffffffffffffffffff1673ffffffffffffffffffffffffffffffffffffffff16815260200190815260200160002060030160009054906101000a900460ff16600481111561203b57fe5b9050919050565b60056064670de0b6b3a76400008161205657fe5b040281565b60056103e8670de0b6b3a76400008161207057fe5b040281565b6000612082600b54615c53565b905090565b670de0b6b3a764000081565b61209c81615c96565b6060600167ffffffffffffffff811180156120b657600080fd5b506040519080825280602002602001820160405280156120e55781602001602082028036833780820191505090505b50905081816000815181106120f657fe5b602002602001019073ffffffffffffffffffffffffffffffffffffffff16908173ffffffffffffffffffffffffffffffffffffffff168152505061213981611ad4565b5050565b600160009054906101000a900473ffffffffffffffffffffffffffffffffffffffff1681565b6000612176612170612a6e565b83615d57565b9050919050565b6000600d60008373ffffffffffffffffffffffffffffffffffffffff1673ffffffffffffffffffffffffffffffffffffffff168152602001908152602001600020600101549050919050565b60c881565b6000601480549050905090565b60006121e682615192565b9050919050565b6714d1120d7b16000081565b612201614b92565b80600481111561220d57fe5b600d60008473ffffffffffffffffffffffffffffffffffffffff1673ffffffffffffffffffffffffffffffffffffffff16815260200190815260200160002060030160006101000a81548160ff0219169083600481111561226a57fe5b02179055505050565b600080601360008473ffffffffffffffffffffffffffffffffffffffff1673ffffffffffffffffffffffffffffffffffffffff16815260200190815260200160002060000154905060006122d282601154614ef990919063ffffffff16565b905060008114806123495750600160048111156122eb57fe5b600d60008673ffffffffffffffffffffffffffffffffffffffff1673ffffffffffffffffffffffffffffffffffffffff16815260200190815260200160002060030160009054906101000a900460ff16600481111561234657fe5b14155b15612359576000925050506123d9565b6000600d60008673ffffffffffffffffffffffffffffffffffffffff1673ffffffffffffffffffffffffffffffffffffffff16815260200190815260200160002060020154905060006123cf670de0b6b3a76400006123c18585615d8e90919063ffffffff16565b615e1490919063ffffffff16565b9050809450505050505b919050565b6123e6614b92565b60006123f0615e5e565b9050670de0b6b3a764000081111561240457fe5b80600b819055507fc454ee9b76c52f782a256af821b857ca6e125d1e3333bcede402fec2bed9600c816040518082815260200191505060405180910390a161244a615eb7565b50565b603c81565b600061246561245f614b52565b83615d57565b9050919050565b6000600d60008373ffffffffffffffffffffffffffffffffffffffff1673ffffffffffffffffffffffffffffffffffffffff168152602001908152602001600020600201549050919050565b6124c0619093565b6040518060e001604052806000809054906101000a900473ffffffffffffffffffffffffffffffffffffffff1673ffffffffffffffffffffffffffffffffffffffff168152602001600160009054906101000a900473ffffffffffffffffffffffffffffffffffffffff1673ffffffffffffffffffffffffffffffffffffffff168152602001600073ffffffffffffffffffffffffffffffffffffffff168152602001600073ffffffffffffffffffffffffffffffffffffffff168152602001600a60009054906101000a900473ffffffffffffffffffffffffffffffffffffffff1673ffffffffffffffffffffffffffffffffffffffff168152602001600073ffffffffffffffffffffffffffffffffffffffff168152602001600073ffffffffffffffffffffffffffffffffffffffff1681525090506000600560009054906101000a900473ffffffffffffffffffffffffffffffffffffffff169050612627619016565b61262f619047565b600260009054906101000a900473ffffffffffffffffffffffffffffffffffffffff1673ffffffffffffffffffffffffffffffffffffffff16630fdb11cf6040518163ffffffff1660e01b8152600401602060405180830381600087803b15801561269957600080fd5b505af11580156126ad573d6000803e3d6000fd5b505050506040513d60208110156126c357600080fd5b81019080805190602001909291905050508260000181815250508273ffffffffffffffffffffffffffffffffffffffff16639bf2f1ac6040518163ffffffff1660e01b815260040160206040518083038186803b15801561272357600080fd5b505afa158015612737573d6000803e3d6000fd5b505050506040513d602081101561274d57600080fd5b81019080805190602001909291905050508260200181815250506127748260000151615192565b8260400190151590811515815250508160400151156127a8576127a1848360000151846020015188615f1a565b90506127c8565b6127c58460000151856020015184600001518560200151896163f5565b90505b6000816020015111612825576040517f08c379a00000000000000000000000000000000000000000000000000000000081526004018080602001828103825260228152602001806194da6022913960400191505060405180910390fd5b8273ffffffffffffffffffffffffffffffffffffffff1663335525ad82608001518360a001516040518363ffffffff1660e01b81526004018083815260200182815260200192505050600060405180830381600087803b15801561288857600080fd5b505af115801561289c573d6000803e3d6000fd5b505050506128bc846000015185602001518360c001518460e001516155e1565b6000816101000151111561299557836000015173ffffffffffffffffffffffffffffffffffffffff166364a197f3600760009054906101000a900473ffffffffffffffffffffffffffffffffffffffff168361010001516040518363ffffffff1660e01b8152600401808373ffffffffffffffffffffffffffffffffffffffff1673ffffffffffffffffffffffffffffffffffffffff16815260200182815260200192505050600060405180830381600087803b15801561297c57600080fd5b505af1158015612990573d6000803e3d6000fd5b505050505b6129a7846000015182604001516158da565b80602001518260600181815250506129e78161010001516129d983604001518460000151614ef990919063ffffffff16565b614ef990919063ffffffff16565b8260800181815250507f4152c73dd2614c4f9fc35e8c9cf16013cd588c75b49a4c1673ecffdcbcda940382606001518360800151836040015184606001516040518085815260200184815260200183815260200182815260200194505050505060405180910390a1612a6784600001513383606001518460400151615a83565b5050505050565b6000612a80612a7b615e5e565b6165aa565b905090565b600d6020528060005260406000206000915090508060000154908060010154908060020154908060030160009054906101000a900460ff16908060030160019054906101000a90046fffffffffffffffffffffffffffffffff16905085565b6000612aee614b92565b6000612b4583600d60008773ffffffffffffffffffffffffffffffffffffffff1673ffffffffffffffffffffffffffffffffffffffff168152602001908152602001600020600101546165fa90919063ffffffff16565b905080600d60008673ffffffffffffffffffffffffffffffffffffffff1673ffffffffffffffffffffffffffffffffffffffff168152602001908152602001600020600101819055508091505092915050565b670de0b6b3a764000081565b600260009054906101000a900473ffffffffffffffffffffffffffffffffffffffff1681565b60148181548110612bd757fe5b906000526020600020016000915054906101000a900473ffffffffffffffffffffffffffffffffffffffff1681565b67120a871cc002000081565b6000806000809054906101000a900473ffffffffffffffffffffffffffffffffffffffff1673ffffffffffffffffffffffffffffffffffffffff16635eb52fca6040518163ffffffff1660e01b815260040160206040518083038186803b158015612c7c57600080fd5b505afa158015612c90573d6000803e3d6000fd5b505050506040513d6020811015612ca657600080fd5b810190808051906020019092919050505090506000600160009054906101000a900473ffffffffffffffffffffffffffffffffffffffff1673ffffffffffffffffffffffffffffffffffffffff16635eb52fca6040518163ffffffff1660e01b815260040160206040518083038186803b158015612d2357600080fd5b505afa158015612d37573d6000803e3d6000fd5b505050506040513d6020811015612d4d57600080fd5b81019080805190602001909291905050509050612d7381836165fa90919063ffffffff16565b9250505090565b60155481565b612d8861379b565b612dfa576040517f08c379a00000000000000000000000000000000000000000000000000000000081526004018080602001828103825260208152602001807f4f776e61626c653a2063616c6c6572206973206e6f7420746865206f776e657281525060200191505060405180910390fd5b612e038b616682565b612e0c8a616682565b612e1589616682565b612e1e88616682565b612e2787616682565b612e3086616682565b612e3985616682565b612e4284616682565b612e4b83616682565b8a600460006101000a81548173ffffffffffffffffffffffffffffffffffffffff021916908373ffffffffffffffffffffffffffffffffffffffff160217905550896000806101000a81548173ffffffffffffffffffffffffffffffffffffffff021916908373ffffffffffffffffffffffffffffffffffffffff16021790555088600160006101000a81548173ffffffffffffffffffffffffffffffffffffffff021916908373ffffffffffffffffffffffffffffffffffffffff16021790555087600560006101000a81548173ffffffffffffffffffffffffffffffffffffffff021916908373ffffffffffffffffffffffffffffffffffffffff16021790555086600660006101000a81548173ffffffffffffffffffffffffffffffffffffffff021916908373ffffffffffffffffffffffffffffffffffffffff16021790555085600760006101000a81548173ffffffffffffffffffffffffffffffffffffffff021916908373ffffffffffffffffffffffffffffffffffffffff16021790555084600260006101000a81548173ffffffffffffffffffffffffffffffffffffffff021916908373ffffffffffffffffffffffffffffffffffffffff16021790555083600860006101000a81548173ffffffffffffffffffffffffffffffffffffffff021916908373ffffffffffffffffffffffffffffffffffffffff16021790555082600a60006101000a81548173ffffffffffffffffffffffffffffffffffffffff021916908373ffffffffffffffffffffffffffffffffffffffff16021790555080600960006101000a81548173ffffffffffffffffffffffffffffffffffffffff021916908373ffffffffffffffffffffffffffffffffffffffff1602179055507f3ca631ffcd2a9b5d9ae18543fc82f58eb4ca33af9e6ab01b7a8e95331e6ed9858b604051808273ffffffffffffffffffffffffffffffffffffffff1673ffffffffffffffffffffffffffffffffffffffff16815260200191505060405180910390a17f78f058b189175430c48dc02699e3a0031ea4ff781536dc2fab847de4babdd8828a604051808273ffffffffffffffffffffffffffffffffffffffff1673ffffffffffffffffffffffffffffffffffffffff16815260200191505060405180910390a17f5ee0cae2f063ed938bb55046f6a932fb6ae792bf43624806bb90abe68a50be9b89604051808273ffffffffffffffffffffffffffffffffffffffff1673ffffffffffffffffffffffffffffffffffffffff16815260200191505060405180910390a17f82966d27eea39b038ee0fa30cd16532bb24f6e65d31cb58fb227aa5766cdcc7f88604051808273ffffffffffffffffffffffffffffffffffffffff1673ffffffffffffffffffffffffffffffffffffffff16815260200191505060405180910390a17fcfb07d791fcafc032b35837b50eb84b74df518cf4cc287e8084f47630fa70fa087604051808273ffffffffffffffffffffffffffffffffffffffff1673ffffffffffffffffffffffffffffffffffffffff16815260200191505060405180910390a17fe67f36a6e961157d6eff83b91f3af5a62131ceb6f04954ef74f51c1c05e7f88d86604051808273ffffffffffffffffffffffffffffffffffffffff1673ffffffffffffffffffffffffffffffffffffffff16815260200191505060405180910390a17f8c537274438aa850a330284665d81a85dd38267d09e4050d416bfc94142db26485604051808273ffffffffffffffffffffffffffffffffffffffff1673ffffffffffffffffffffffffffffffffffffffff16815260200191505060405180910390a17f227eec0ec317af6ab1a9587ffa1c84332522eb4c583a908f89babc05f8f339bd84604051808273ffffffffffffffffffffffffffffffffffffffff1673ffffffffffffffffffffffffffffffffffffffff16815260200191505060405180910390a17f65f4cf077bc01e4742eb5ad98326f6e95b63548ea24b17f8d5e823111fe7880083604051808273ffffffffffffffffffffffffffffffffffffffff1673ffffffffffffffffffffffffffffffffffffffff16815260200191505060405180910390a17f756ebc192164c295bba134b5aacd72cc7aff8098a670d1f0a5f6b3a0b4ce670781604051808273ffffffffffffffffffffffffffffffffffffffff1673ffffffffffffffffffffffffffffffffffffffff16815260200191505060405180910390a15050505050505050505050565b6000809054906101000a900473ffffffffffffffffffffffffffffffffffffffff1681565b600f5481565b600360159054906101000a900460ff168061350957506135086167a5565b5b806135215750600360149054906101000a900460ff16155b613576576040517f08c379a000000000000000000000000000000000000000000000000000000000815260040180806020018281038252602e8152602001806192e4602e913960400191505060405180910390fd5b6000600360159054906101000a900460ff1615905080156135c8576001600360156101000a81548160ff0219169083151502179055506001600360146101000a81548160ff0219169083151502179055505b6135d06167b6565b80156135f2576000600360156101000a81548160ff0219169083151502179055505b50565b6135fd614b92565b6136068161685a565b50565b6000806000809054906101000a900473ffffffffffffffffffffffffffffffffffffffff1673ffffffffffffffffffffffffffffffffffffffff166314f6c3be6040518163ffffffff1660e01b815260040160206040518083038186803b15801561367357600080fd5b505afa158015613687573d6000803e3d6000fd5b505050506040513d602081101561369d57600080fd5b810190808051906020019092919050505090506000600160009054906101000a900473ffffffffffffffffffffffffffffffffffffffff1673ffffffffffffffffffffffffffffffffffffffff166314f6c3be6040518163ffffffff1660e01b815260040160206040518083038186803b15801561371a57600080fd5b505afa15801561372e573d6000803e3d6000fd5b505050506040513d602081101561374457600080fd5b8101908080519060200190929190505050905061376a81836165fa90919063ffffffff16565b9250505090565b6000600360009054906101000a900473ffffffffffffffffffffffffffffffffffffffff16905090565b6000600360009054906101000a900473ffffffffffffffffffffffffffffffffffffffff1673ffffffffffffffffffffffffffffffffffffffff163373ffffffffffffffffffffffffffffffffffffffff1614905090565b60105481565b6000613803614b92565b600061385a83600d60008773ffffffffffffffffffffffffffffffffffffffff1673ffffffffffffffffffffffffffffffffffffffff168152602001908152602001600020600001546165fa90919063ffffffff16565b905080600d60008673ffffffffffffffffffffffffffffffffffffffff1673ffffffffffffffffffffffffffffffffffffffff168152602001908152602001600020600001819055508091505092915050565b60115481565b670de0b6b3a764000081565b600960009054906101000a900473ffffffffffffffffffffffffffffffffffffffff1681565b6040518060400160405280600c81526020017f54726f76654d616e61676572000000000000000000000000000000000000000081525081565b600a60009054906101000a900473ffffffffffffffffffffffffffffffffffffffff1681565b600080600061395284616932565b9150915060006139628383616a10565b9050809350505050919050565b600460009054906101000a900473ffffffffffffffffffffffffffffffffffffffff1681565b60006139a082616a79565b9050919050565b600860009054906101000a900473ffffffffffffffffffffffffffffffffffffffff1681565b600080600080600d60008673ffffffffffffffffffffffffffffffffffffffff1673ffffffffffffffffffffffffffffffffffffffff168152602001908152602001600020600001549350600d60008673ffffffffffffffffffffffffffffffffffffffff1673ffffffffffffffffffffffffffffffffffffffff168152602001908152602001600020600101549250613a66856149e7565b9150613a7185612273565b9050613a8682856165fa90919063ffffffff16565b9350613a9b81846165fa90919063ffffffff16565b92509193509193565b613aac619093565b6040518060e001604052806000809054906101000a900473ffffffffffffffffffffffffffffffffffffffff1673ffffffffffffffffffffffffffffffffffffffff168152602001600160009054906101000a900473ffffffffffffffffffffffffffffffffffffffff1673ffffffffffffffffffffffffffffffffffffffff168152602001600860009054906101000a900473ffffffffffffffffffffffffffffffffffffffff1673ffffffffffffffffffffffffffffffffffffffff168152602001600960009054906101000a900473ffffffffffffffffffffffffffffffffffffffff1673ffffffffffffffffffffffffffffffffffffffff168152602001600a60009054906101000a900473ffffffffffffffffffffffffffffffffffffffff1673ffffffffffffffffffffffffffffffffffffffff168152602001600760009054906101000a900473ffffffffffffffffffffffffffffffffffffffff1673ffffffffffffffffffffffffffffffffffffffff168152602001600660009054906101000a900473ffffffffffffffffffffffffffffffffffffffff1673ffffffffffffffffffffffffffffffffffffffff168152509050613c7061916a565b613c7983616aa9565b600260009054906101000a900473ffffffffffffffffffffffffffffffffffffffff1673ffffffffffffffffffffffffffffffffffffffff16630fdb11cf6040518163ffffffff1660e01b8152600401602060405180830381600087803b158015613ce357600080fd5b505af1158015613cf7573d6000803e3d6000fd5b505050506040513d6020811015613d0d57600080fd5b81019080805190602001909291905050508160c0018181525050613d348160c00151616b2f565b613d3d89616b9b565b613d4c8260400151338b616bf7565b613d54612c12565b8160e00181815250508060e00151826040015173ffffffffffffffffffffffffffffffffffffffff166370a08231336040518263ffffffff1660e01b8152600401808273ffffffffffffffffffffffffffffffffffffffff1673ffffffffffffffffffffffffffffffffffffffff16815260200191505060206040518083038186803b158015613de357600080fd5b505afa158015613df7573d6000803e3d6000fd5b505050506040513d6020811015613e0d57600080fd5b81019080805190602001909291905050501115613e2657fe5b888160000181815250506000613e4583608001518a8460c00151616d0c565b15613e5257889050613ff4565b826080015173ffffffffffffffffffffffffffffffffffffffff16634d6228316040518163ffffffff1660e01b815260040160206040518083038186803b158015613e9c57600080fd5b505afa158015613eb0573d6000803e3d6000fd5b505050506040513d6020811015613ec657600080fd5b810190808051906020019092919050505090505b600073ffffffffffffffffffffffffffffffffffffffff168173ffffffffffffffffffffffffffffffffffffffff1614158015613f2b575067120a871cc0020000613f29828460c001516145cc565b105b15613ff357826080015173ffffffffffffffffffffffffffffffffffffffff1663b72703ac826040518263ffffffff1660e01b8152600401808273ffffffffffffffffffffffffffffffffffffffff1673ffffffffffffffffffffffffffffffffffffffff16815260200191505060206040518083038186803b158015613fb157600080fd5b505afa158015613fc5573d6000803e3d6000fd5b505050506040513d6020811015613fdb57600080fd5b81019080805190602001909291905050509050613eda565b5b6000851415614021577fffffffffffffffffffffffffffffffffffffffffffffffffffffffffffffffff94505b5b600073ffffffffffffffffffffffffffffffffffffffff168173ffffffffffffffffffffffffffffffffffffffff1614158015614063575060008260000151115b801561406f5750600085115b156141f8578480600190039550506000836080015173ffffffffffffffffffffffffffffffffffffffff1663b72703ac836040518263ffffffff1660e01b8152600401808273ffffffffffffffffffffffffffffffffffffffff1673ffffffffffffffffffffffffffffffffffffffff16815260200191505060206040518083038186803b15801561410057600080fd5b505afa158015614114573d6000803e3d6000fd5b505050506040513d602081101561412a57600080fd5b810190808051906020019092919050505090506141508460000151856020015184614c3a565b6141586191af565b61416f858486600001518760c001518e8e8e616f38565b90508060400151156141825750506141f8565b61419d816000015185602001516165fa90919063ffffffff16565b8460200181815250506141c1816020015185604001516165fa90919063ffffffff16565b8460400181815250506141e581600001518560000151614ef990919063ffffffff16565b8460000181815250508192505050614022565b6000826040015111614255576040517f08c379a00000000000000000000000000000000000000000000000000000000081526004018080602001828103825260298152602001806192bb6029913960400191505060405180910390fd5b61426c82604001518360c001518460e00151617412565b5061427a82604001516174e3565b82606001818152505061429682606001518360400151866174fd565b826000015173ffffffffffffffffffffffffffffffffffffffff166364a197f3846060015184606001516040518363ffffffff1660e01b8152600401808373ffffffffffffffffffffffffffffffffffffffff1673ffffffffffffffffffffffffffffffffffffffff16815260200182815260200192505050600060405180830381600087803b15801561432957600080fd5b505af115801561433d573d6000803e3d6000fd5b5050505061435c82606001518360400151614ef990919063ffffffff16565b8260800181815250507f43a3f4082a4dbc33d78e317d2497d3a730bc7fc3574159dcea1056e62e5d9ad88a8360200151846040015185606001516040518085815260200184815260200183815260200182815260200194505050505060405180910390a1826040015173ffffffffffffffffffffffffffffffffffffffff16639dc29fac3384602001516040518363ffffffff1660e01b8152600401808373ffffffffffffffffffffffffffffffffffffffff1673ffffffffffffffffffffffffffffffffffffffff16815260200182815260200192505050600060405180830381600087803b15801561444f57600080fd5b505af1158015614463573d6000803e3d6000fd5b50505050826000015173ffffffffffffffffffffffffffffffffffffffff166338d995a883602001516040518263ffffffff1660e01b815260040180828152602001915050600060405180830381600087803b1580156144c257600080fd5b505af11580156144d6573d6000803e3d6000fd5b50505050826000015173ffffffffffffffffffffffffffffffffffffffff166364a197f33384608001516040518363ffffffff1660e01b8152600401808373ffffffffffffffffffffffffffffffffffffffff1673ffffffffffffffffffffffffffffffffffffffff16815260200182815260200192505050600060405180830381600087803b15801561456957600080fd5b505af115801561457d573d6000803e3d6000fd5b5050505050505050505050505050565b600e5481565b60006145a56145a0615e5e565b615c53565b905090565b670ddd4b8c6c7d70d881565b6145be614b92565b6145c98160026175aa565b50565b60008060006145da85616932565b9150915060006145eb83838761784c565b905080935050505092915050565b600c5481565b6000614609614b92565b600061466083600d60008773ffffffffffffffffffffffffffffffffffffffff1673ffffffffffffffffffffffffffffffffffffffff16815260200190815260200160002060010154614ef990919063ffffffff16565b905080600d60008673ffffffffffffffffffffffffffffffffffffffff1673ffffffffffffffffffffffffffffffffffffffff168152602001908152602001600020600101819055508091505092915050565b60006146c66146c0614593565b836178b3565b9050919050565b6000600d60008373ffffffffffffffffffffffffffffffffffffffff1673ffffffffffffffffffffffffffffffffffffffff168152602001908152602001600020600001549050919050565b60006014828154811061472857fe5b9060005260206000200160009054906101000a900473ffffffffffffffffffffffffffffffffffffffff169050919050565b60125481565b60006001600481111561476f57fe5b600d60008473ffffffffffffffffffffffffffffffffffffffff1673ffffffffffffffffffffffffffffffffffffffff16815260200190815260200160002060030160009054906101000a900460ff1660048111156147ca57fe5b146147d85760009050614822565b601154601360008473ffffffffffffffffffffffffffffffffffffffff1673ffffffffffffffffffffffffffffffffffffffff168152602001908152602001600020600001541090505b919050565b61482f61379b565b6148a1576040517f08c379a00000000000000000000000000000000000000000000000000000000081526004018080602001828103825260208152602001807f4f776e61626c653a2063616c6c6572206973206e6f7420746865206f776e657281525060200191505060405180910390fd5b600073ffffffffffffffffffffffffffffffffffffffff168173ffffffffffffffffffffffffffffffffffffffff161415614927576040517f08c379a00000000000000000000000000000000000000000000000000000000081526004018080602001828103825260268152602001806192956026913960400191505060405180910390fd5b8073ffffffffffffffffffffffffffffffffffffffff16600360009054906101000a900473ffffffffffffffffffffffffffffffffffffffff1673ffffffffffffffffffffffffffffffffffffffff167f8be0079c531659141344cd1fd0a4f28419497f9722a3daafe3b4186f6b6457e060405160405180910390a380600360006101000a81548173ffffffffffffffffffffffffffffffffffffffff021916908373ffffffffffffffffffffffffffffffffffffffff16021790555050565b600080601360008473ffffffffffffffffffffffffffffffffffffffff1673ffffffffffffffffffffffffffffffffffffffff1681526020019081526020016000206001015490506000614a4682601254614ef990919063ffffffff16565b90506000811480614abd575060016004811115614a5f57fe5b600d60008673ffffffffffffffffffffffffffffffffffffffff1673ffffffffffffffffffffffffffffffffffffffff16815260200190815260200160002060030160009054906101000a900460ff166004811115614aba57fe5b14155b15614acd57600092505050614b4d565b6000600d60008673ffffffffffffffffffffffffffffffffffffffff1673ffffffffffffffffffffffffffffffffffffffff1681526020019081526020016000206002015490506000614b43670de0b6b3a7640000614b358585615d8e90919063ffffffff16565b615e1490919063ffffffff16565b9050809450505050505b919050565b6000614b5f600b546165aa565b905090565b60056103e8670de0b6b3a764000081614b7957fe5b040281565b614b86614b92565b614b8f81617947565b50565b600460009054906101000a900473ffffffffffffffffffffffffffffffffffffffff1673ffffffffffffffffffffffffffffffffffffffff163373ffffffffffffffffffffffffffffffffffffffff1614614c38576040517f08c379a000000000000000000000000000000000000000000000000000000000815260040180806020018281038252603b8152602001806193ab603b913960400191505060405180910390fd5b565b614c4381614760565b15614ef457614c5181615c96565b6000614c5c82612273565b90506000614c69836149e7565b9050614cc082600d60008673ffffffffffffffffffffffffffffffffffffffff1673ffffffffffffffffffffffffffffffffffffffff168152602001908152602001600020600101546165fa90919063ffffffff16565b600d60008573ffffffffffffffffffffffffffffffffffffffff1673ffffffffffffffffffffffffffffffffffffffff16815260200190815260200160002060010181905550614d5b81600d60008673ffffffffffffffffffffffffffffffffffffffff1673ffffffffffffffffffffffffffffffffffffffff168152602001908152602001600020600001546165fa90919063ffffffff16565b600d60008573ffffffffffffffffffffffffffffffffffffffff1673ffffffffffffffffffffffffffffffffffffffff16815260200190815260200160002060000181905550614daa8361685a565b614db6858583856179f5565b8273ffffffffffffffffffffffffffffffffffffffff167fc3770d654ed33aeea6bf11ac8ef05d02a6a04ed4686dd2f624d853bbec43cc8b600d60008673ffffffffffffffffffffffffffffffffffffffff1673ffffffffffffffffffffffffffffffffffffffff16815260200190815260200160002060000154600d60008773ffffffffffffffffffffffffffffffffffffffff1673ffffffffffffffffffffffffffffffffffffffff16815260200190815260200160002060010154600d60008873ffffffffffffffffffffffffffffffffffffffff1673ffffffffffffffffffffffffffffffffffffffff16815260200190815260200160002060020154600060405180858152602001848152602001838152602001826003811115614edb57fe5b60ff16815260200194505050505060405180910390a250505b505050565b6000614f3b83836040518060400160405280601e81526020017f536166654d6174683a207375627472616374696f6e206f766572666c6f770000815250617b3c565b905092915050565b60006014829080600181540180825580915050600190039060005260206000200160009091909190916101000a81548173ffffffffffffffffffffffffffffffffffffffff021916908373ffffffffffffffffffffffffffffffffffffffff160217905550614fc16001601480549050614ef990919063ffffffff16565b905080600d60008473ffffffffffffffffffffffffffffffffffffffff1673ffffffffffffffffffffffffffffffffffffffff16815260200190815260200160002060030160016101000a8154816fffffffffffffffffffffffffffffffff02191690836fffffffffffffffffffffffffffffffff160217905550809050919050565b600080615092600d60008573ffffffffffffffffffffffffffffffffffffffff1673ffffffffffffffffffffffffffffffffffffffff16815260200190815260200160002060010154617bfc565b90506000600d60008573ffffffffffffffffffffffffffffffffffffffff1673ffffffffffffffffffffffffffffffffffffffff16815260200190815260200160002060020154905081600d60008673ffffffffffffffffffffffffffffffffffffffff1673ffffffffffffffffffffffffffffffffffffffff168152602001908152602001600020600201819055506151498261513b83600e54614ef990919063ffffffff16565b6165fa90919063ffffffff16565b600e819055507f6bac5e0eb3c44eb03a60ab11ec3a2c051771616aecadbcfff2630aabae520382600e546040518082815260200191505060405180910390a18192505050919050565b60008061519e83616a79565b90506714d1120d7b1600008110915050919050565b6151bb619047565b6151c36191d2565b6151cb619227565b8482600001818152505060008260800190151590811515815250506151ee612c12565b8260a00181815250506151ff613609565b8260c001818152505060008260200181815250505b8351826020015110156154ba578382602001518151811061523157fe5b6020026020010151826060019073ffffffffffffffffffffffffffffffffffffffff16908173ffffffffffffffffffffffffffffffffffffffff16815250506001600481111561527d57fe5b600d6000846060015173ffffffffffffffffffffffffffffffffffffffff1673ffffffffffffffffffffffffffffffffffffffff16815260200190815260200160002060030160009054906101000a900460ff1660048111156152dc57fe5b146152e6576154a5565b6152f48260600151876145cc565b82604001818152505081608001516154325767120a871cc0020000826040015110158015615326575060008260000151145b15615330576154a5565b60006153458360c001518460a001518961784c565b90506153628989856060015186604001518760000151868d617c53565b915061537f82608001518460000151614ef990919063ffffffff16565b8360000181815250506153a382608001518460a00151614ef990919063ffffffff16565b8360a00181815250506153f48261010001516153e684604001516153d88660a001518860c00151614ef990919063ffffffff16565b614ef990919063ffffffff16565b614ef990919063ffffffff16565b8360c0018181525050615407848361821d565b935061541c8360c001518460a0015189618375565b15836080019015159081151581525050506154a4565b8160800151801561544e575067120a871cc00200008260400151105b1561549e5761546788888460600151856000015161839a565b905061548481608001518360000151614ef990919063ffffffff16565b826000018181525050615497838261821d565b92506154a3565b6154a5565b5b5b81602001805180919060010181525050615214565b505095945050505050565b6154cd619047565b6154d56191d2565b6154dd619227565b8482600001818152505060008260200181815250505b8351826020015110156155d6578382602001518151811061551057fe5b6020026020010151826060019073ffffffffffffffffffffffffffffffffffffffff16908173ffffffffffffffffffffffffffffffffffffffff168152505061555d8260600151876145cc565b82604001818152505067120a871cc0020000826040015110156155c15761558e88888460600151856000015161839a565b90506155ab81608001518360000151614ef990919063ffffffff16565b8260000181815250506155be838261821d565b92505b816020018051809190600101815250506154f3565b505095945050505050565b60008214156155ef576158d4565b6000615620601554615612670de0b6b3a764000085615d8e90919063ffffffff16565b6165fa90919063ffffffff16565b90506000615653601654615645670de0b6b3a764000087615d8e90919063ffffffff16565b6165fa90919063ffffffff16565b9050600061566c600e5484615e1490919063ffffffff16565b90506000615685600e5484615e1490919063ffffffff16565b90506156ae61569f600e5484615d8e90919063ffffffff16565b85614ef990919063ffffffff16565b6015819055506156db6156cc600e5483615d8e90919063ffffffff16565b84614ef990919063ffffffff16565b6016819055506156f6826011546165fa90919063ffffffff16565b601181905550615711816012546165fa90919063ffffffff16565b6012819055507f9f8bc8ab0daf5bceef75ecfd2085d1fcc6548c657ea970d9a23a60610d0737e3601154601254604051808381526020018281526020019250505060405180910390a18773ffffffffffffffffffffffffffffffffffffffff166338d995a8876040518263ffffffff1660e01b815260040180828152602001915050600060405180830381600087803b1580156157ad57600080fd5b505af11580156157c1573d6000803e3d6000fd5b505050508673ffffffffffffffffffffffffffffffffffffffff1663cfb9329a876040518263ffffffff1660e01b815260040180828152602001915050600060405180830381600087803b15801561581857600080fd5b505af115801561582c573d6000803e3d6000fd5b505050508773ffffffffffffffffffffffffffffffffffffffff166364a197f388876040518363ffffffff1660e01b8152600401808373ffffffffffffffffffffffffffffffffffffffff1673ffffffffffffffffffffffffffffffffffffffff16815260200182815260200192505050600060405180830381600087803b1580156158b757600080fd5b505af11580156158cb573d6000803e3d6000fd5b50505050505050505b50505050565b600e54600f8190555060008273ffffffffffffffffffffffffffffffffffffffff166314f6c3be6040518163ffffffff1660e01b815260040160206040518083038186803b15801561592b57600080fd5b505afa15801561593f573d6000803e3d6000fd5b505050506040513d602081101561595557600080fd5b810190808051906020019092919050505090506000600160009054906101000a900473ffffffffffffffffffffffffffffffffffffffff1673ffffffffffffffffffffffffffffffffffffffff166314f6c3be6040518163ffffffff1660e01b815260040160206040518083038186803b1580156159d257600080fd5b505afa1580156159e6573d6000803e3d6000fd5b505050506040513d60208110156159fc57600080fd5b81019080805190602001909291905050509050615a3481615a268585614ef990919063ffffffff16565b6165fa90919063ffffffff16565b6010819055507f51bf4c63ec3cba9d03d43238abbdd979dd91bd16d9895c74ceea9118c7baaf60600f54601054604051808381526020018281526020019250505060405180910390a150505050565b6000821115615ba457600860009054906101000a900473ffffffffffffffffffffffffffffffffffffffff1673ffffffffffffffffffffffffffffffffffffffff166320c582be600660009054906101000a900473ffffffffffffffffffffffffffffffffffffffff1685856040518463ffffffff1660e01b8152600401808473ffffffffffffffffffffffffffffffffffffffff1673ffffffffffffffffffffffffffffffffffffffff1681526020018373ffffffffffffffffffffffffffffffffffffffff1673ffffffffffffffffffffffffffffffffffffffff1681526020018281526020019350505050600060405180830381600087803b158015615b8b57600080fd5b505af1158015615b9f573d6000803e3d6000fd5b505050505b6000811115615c4d578373ffffffffffffffffffffffffffffffffffffffff166364a197f384836040518363ffffffff1660e01b8152600401808373ffffffffffffffffffffffffffffffffffffffff1673ffffffffffffffffffffffffffffffffffffffff16815260200182815260200192505050600060405180830381600087803b158015615c3457600080fd5b505af1158015615c48573d6000803e3d6000fd5b505050505b50505050565b6000615c8f615c818360056103e8670de0b6b3a764000081615c7157fe5b04026165fa90919063ffffffff16565b670de0b6b3a7640000618572565b9050919050565b60016004811115615ca357fe5b600d60008373ffffffffffffffffffffffffffffffffffffffff1673ffffffffffffffffffffffffffffffffffffffff16815260200190815260200160002060030160009054906101000a900460ff166004811115615cfe57fe5b14615d54576040517f08c379a000000000000000000000000000000000000000000000000000000000815260040180806020018281038252602f8152602001806194fc602f913960400191505060405180910390fd5b50565b6000615d86670de0b6b3a7640000615d788486615d8e90919063ffffffff16565b615e1490919063ffffffff16565b905092915050565b600080831415615da15760009050615e0e565b6000828402905082848281615db257fe5b0414615e09576040517f08c379a000000000000000000000000000000000000000000000000000000000815260040180806020018281038252602181526020018061933c6021913960400191505060405180910390fd5b809150505b92915050565b6000615e5683836040518060400160405280601a81526020017f536166654d6174683a206469766973696f6e206279207a65726f00000000000081525061858b565b905092915050565b600080615e69618651565b90506000615e7f670ddd4b8c6c7d70d883618680565b9050615eb0670de0b6b3a7640000615ea283600b54615d8e90919063ffffffff16565b615e1490919063ffffffff16565b9250505090565b6000615ece600c5442614ef990919063ffffffff16565b9050603c8110615f175742600c819055507f860f8d2f0c74dd487e89e2883e3b25b8159ce1e1b3433a291cba7b82c508f3bc426040518082815260200191505060405180910390a15b50565b615f22619047565b615f2a6191d2565b615f32619227565b848260000181815250506000826080019015159081151581525050615f55612c12565b8260a0018181525050615f66613609565b8260c0018181525050866080015173ffffffffffffffffffffffffffffffffffffffff16634d6228316040518163ffffffff1660e01b815260040160206040518083038186803b158015615fb957600080fd5b505afa158015615fcd573d6000803e3d6000fd5b505050506040513d6020811015615fe357600080fd5b8101908080519060200190929190505050826060019073ffffffffffffffffffffffffffffffffffffffff16908173ffffffffffffffffffffffffffffffffffffffff16815250506000876080015173ffffffffffffffffffffffffffffffffffffffff16631e2231436040518163ffffffff1660e01b815260040160206040518083038186803b15801561607757600080fd5b505afa15801561608b573d6000803e3d6000fd5b505050506040513d60208110156160a157600080fd5b8101908080519060200190929190505050905060008360200181815250505b84836020015110801561610357508073ffffffffffffffffffffffffffffffffffffffff16836060015173ffffffffffffffffffffffffffffffffffffffff1614155b156163ea576000886080015173ffffffffffffffffffffffffffffffffffffffff1663b72703ac85606001516040518263ffffffff1660e01b8152600401808273ffffffffffffffffffffffffffffffffffffffff1673ffffffffffffffffffffffffffffffffffffffff16815260200191505060206040518083038186803b15801561618f57600080fd5b505afa1580156161a3573d6000803e3d6000fd5b505050506040513d60208110156161b957600080fd5b810190808051906020019092919050505090506161da8460600151896145cc565b84604001818152505083608001516163215767120a871cc002000084604001511015801561620c575060008460000151145b1561621757506163ea565b600061622c8560c001518660a001518b61784c565b90506162518a600001518b60200151876060015188604001518960000151868f617c53565b935061626e84608001518660000151614ef990919063ffffffff16565b85600001818152505061629284608001518660a00151614ef990919063ffffffff16565b8560a00181815250506162e38461010001516162d586604001516162c78860a001518a60c00151614ef990919063ffffffff16565b614ef990919063ffffffff16565b614ef990919063ffffffff16565b8560c00181815250506162f6868561821d565b955061630b8560c001518660a001518b618375565b158560800190151590811515815250505061639c565b8360800151801561633d575067120a871cc00200008460400151105b156163955761635e89600001518a602001518660600151876000015161839a565b925061637b83608001518560000151614ef990919063ffffffff16565b84600001818152505061638e858461821d565b945061639b565b506163ea565b5b80846060019073ffffffffffffffffffffffffffffffffffffffff16908173ffffffffffffffffffffffffffffffffffffffff168152505050826020018051809190600101815250506160c0565b505050949350505050565b6163fd619047565b6164056191d2565b61640d619227565b6000600a60009054906101000a900473ffffffffffffffffffffffffffffffffffffffff1690508583600001818152505060008360200181815250505b848360200151101561659e578073ffffffffffffffffffffffffffffffffffffffff16634d6228316040518163ffffffff1660e01b815260040160206040518083038186803b15801561649c57600080fd5b505afa1580156164b0573d6000803e3d6000fd5b505050506040513d60208110156164c657600080fd5b8101908080519060200190929190505050836060019073ffffffffffffffffffffffffffffffffffffffff16908173ffffffffffffffffffffffffffffffffffffffff168152505061651c8360600151886145cc565b83604001818152505067120a871cc0020000836040015110156165845761654d89898560600151866000015161839a565b915061656a82608001518460000151614ef990919063ffffffff16565b83600001818152505061657d848361821d565b9350616589565b61659e565b8260200180518091906001018152505061644a565b50505095945050505050565b60006165f36165d88360056103e8670de0b6b3a7640000816165c857fe5b04026165fa90919063ffffffff16565b60056064670de0b6b3a7640000816165ec57fe5b0402618572565b9050919050565b600080828401905083811015616678576040517f08c379a000000000000000000000000000000000000000000000000000000000815260040180806020018281038252601b8152602001807f536166654d6174683a206164646974696f6e206f766572666c6f77000000000081525060200191505060405180910390fd5b8091505092915050565b600073ffffffffffffffffffffffffffffffffffffffff168173ffffffffffffffffffffffffffffffffffffffff161415616725576040517f08c379a000000000000000000000000000000000000000000000000000000000815260040180806020018281038252601e8152602001807f4163636f756e742063616e6e6f74206265207a65726f2061646472657373000081525060200191505060405180910390fd5b6000813b9050600081116167a1576040517f08c379a00000000000000000000000000000000000000000000000000000000081526004018080602001828103825260208152602001807f4163636f756e7420636f64652073697a652063616e6e6f74206265207a65726f81525060200191505060405180910390fd5b5050565b60006167b030618767565b15905090565b600033905080600360006101000a81548173ffffffffffffffffffffffffffffffffffffffff021916908373ffffffffffffffffffffffffffffffffffffffff1602179055508073ffffffffffffffffffffffffffffffffffffffff16600073ffffffffffffffffffffffffffffffffffffffff167f8be0079c531659141344cd1fd0a4f28419497f9722a3daafe3b4186f6b6457e060405160405180910390a350565b601154601360008373ffffffffffffffffffffffffffffffffffffffff1673ffffffffffffffffffffffffffffffffffffffff16815260200190815260200160002060000181905550601254601360008373ffffffffffffffffffffffffffffffffffffffff1673ffffffffffffffffffffffffffffffffffffffff168152602001908152602001600020600101819055507fc437f324d85e369394148dd9d62f98f534b382e01ed3dd2eb98138fb6d3ab49a601154601254604051808381526020018281526020019250505060405180910390a150565b600080600061694084612273565b9050600061694d856149e7565b905060006169a683600d60008973ffffffffffffffffffffffffffffffffffffffff1673ffffffffffffffffffffffffffffffffffffffff168152602001908152602001600020600101546165fa90919063ffffffff16565b905060006169ff83600d60008a73ffffffffffffffffffffffffffffffffffffffff1673ffffffffffffffffffffffffffffffffffffffff168152602001908152602001600020600001546165fa90919063ffffffff16565b905081819550955050505050915091565b600080821115616a4f57616a4882616a3a68056bc75e2d6310000086615d8e90919063ffffffff16565b615e1490919063ffffffff16565b9050616a73565b7fffffffffffffffffffffffffffffffffffffffffffffffffffffffffffffffff90505b92915050565b600080616a84613609565b90506000616a90612c12565b9050616a9d82828661784c565b92508292505050919050565b60056103e8670de0b6b3a764000081616abe57fe5b04028110158015616ad75750670de0b6b3a76400008111155b616b2c576040517f08c379a00000000000000000000000000000000000000000000000000000000081526004018080602001828103825260308152602001806194806030913960400191505060405180910390fd5b50565b67120a871cc0020000616b4182616a79565b1015616b98576040517f08c379a000000000000000000000000000000000000000000000000000000000815260040180806020018281038252602a8152602001806194b0602a913960400191505060405180910390fd5b50565b60008111616bf4576040517f08c379a000000000000000000000000000000000000000000000000000000000815260040180806020018281038252602e81526020018061941c602e913960400191505060405180910390fd5b50565b808373ffffffffffffffffffffffffffffffffffffffff166370a08231846040518263ffffffff1660e01b8152600401808273ffffffffffffffffffffffffffffffffffffffff1673ffffffffffffffffffffffffffffffffffffffff16815260200191505060206040518083038186803b158015616c7557600080fd5b505afa158015616c89573d6000803e3d6000fd5b505050506040513d6020811015616c9f57600080fd5b81019080805190602001909291905050501015616d07576040517f08c379a000000000000000000000000000000000000000000000000000000000815260040180806020018281038252604e81526020018061935d604e913960600191505060405180910390fd5b505050565b60008073ffffffffffffffffffffffffffffffffffffffff168373ffffffffffffffffffffffffffffffffffffffff161480616dfd57508373ffffffffffffffffffffffffffffffffffffffff16635dbe47e8846040518263ffffffff1660e01b8152600401808273ffffffffffffffffffffffffffffffffffffffff1673ffffffffffffffffffffffffffffffffffffffff16815260200191505060206040518083038186803b158015616dc057600080fd5b505afa158015616dd4573d6000803e3d6000fd5b505050506040513d6020811015616dea57600080fd5b8101908080519060200190929190505050155b80616e18575067120a871cc0020000616e1684846145cc565b105b15616e265760009050616f31565b60008473ffffffffffffffffffffffffffffffffffffffff1663765e0159856040518263ffffffff1660e01b8152600401808273ffffffffffffffffffffffffffffffffffffffff1673ffffffffffffffffffffffffffffffffffffffff16815260200191505060206040518083038186803b158015616ea557600080fd5b505afa158015616eb9573d6000803e3d6000fd5b505050506040513d6020811015616ecf57600080fd5b81019080805190602001909291905050509050600073ffffffffffffffffffffffffffffffffffffffff168173ffffffffffffffffffffffffffffffffffffffff161480616f2d575067120a871cc0020000616f2b82856145cc565b105b9150505b9392505050565b616f406191af565b616fa686616fa1670de0b6b3a7640000600d60008c73ffffffffffffffffffffffffffffffffffffffff1673ffffffffffffffffffffffffffffffffffffffff16815260200190815260200160002060000154614ef990919063ffffffff16565b618572565b816000018181525050616fe085616fd2670de0b6b3a76400008460000151615d8e90919063ffffffff16565b615e1490919063ffffffff16565b81602001818152505060006170448260000151600d60008b73ffffffffffffffffffffffffffffffffffffffff1673ffffffffffffffffffffffffffffffffffffffff16815260200190815260200160002060000154614ef990919063ffffffff16565b905060006170a18360200151600d60008c73ffffffffffffffffffffffffffffffffffffffff1673ffffffffffffffffffffffffffffffffffffffff16815260200190815260200160002060010154614ef990919063ffffffff16565b9050670de0b6b3a7640000821415617157576170bc89617947565b6170c78960046175aa565b6170db8a8a670de0b6b3a76400008461877a565b8873ffffffffffffffffffffffffffffffffffffffff167fc3770d654ed33aeea6bf11ac8ef05d02a6a04ed4686dd2f624d853bbec43cc8b600080600060036040518085815260200184815260200183815260200182600381111561713c57fe5b60ff16815260200194505050505060405180910390a2617401565b60006171638284616a10565b90508481141580617184575068056bc75e2d63100000617182846189fe565b105b156171a5576001846040019015159081151581525050839350505050617407565b8a6080015173ffffffffffffffffffffffffffffffffffffffff16632be212608b838a8a6040518563ffffffff1660e01b8152600401808573ffffffffffffffffffffffffffffffffffffffff1673ffffffffffffffffffffffffffffffffffffffff1681526020018481526020018373ffffffffffffffffffffffffffffffffffffffff1673ffffffffffffffffffffffffffffffffffffffff1681526020018273ffffffffffffffffffffffffffffffffffffffff1673ffffffffffffffffffffffffffffffffffffffff168152602001945050505050600060405180830381600087803b15801561729857600080fd5b505af11580156172ac573d6000803e3d6000fd5b5050505082600d60008c73ffffffffffffffffffffffffffffffffffffffff1673ffffffffffffffffffffffffffffffffffffffff1681526020019081526020016000206000018190555081600d60008c73ffffffffffffffffffffffffffffffffffffffff1673ffffffffffffffffffffffffffffffffffffffff168152602001908152602001600020600101819055506173478a615044565b508973ffffffffffffffffffffffffffffffffffffffff167fc3770d654ed33aeea6bf11ac8ef05d02a6a04ed4686dd2f624d853bbec43cc8b8484600d60008f73ffffffffffffffffffffffffffffffffffffffff1673ffffffffffffffffffffffffffffffffffffffff168152602001908152602001600020600201546003604051808581526020018481526020018381526020018260038111156173e957fe5b60ff16815260200194505050505060405180910390a2505b82925050505b979650505050505050565b60008061741d615e5e565b90506000617446846174388789615d8e90919063ffffffff16565b615e1490919063ffffffff16565b90506000617470617461600284615e1490919063ffffffff16565b846165fa90919063ffffffff16565b905061748481670de0b6b3a7640000618572565b90506000811161749057fe5b80600b819055507fc454ee9b76c52f782a256af821b857ca6e125d1e3333bcede402fec2bed9600c816040518082815260200191505060405180910390a16174d6615eb7565b8093505050509392505050565b60006174f66174f0612075565b836178b3565b9050919050565b600061752c8361751e670de0b6b3a764000087615d8e90919063ffffffff16565b615e1490919063ffffffff16565b9050818111156175a4576040517f08c379a000000000000000000000000000000000000000000000000000000000815260040180806020018281038252601d8152602001807f4665652065786365656465642070726f7669646564206d6178696d756d00000081525060200191505060405180910390fd5b50505050565b600060048111156175b757fe5b8160048111156175c357fe5b141580156175e85750600160048111156175d957fe5b8160048111156175e557fe5b14155b6175ee57fe5b6000601480549050905061760181618a22565b81600d60008573ffffffffffffffffffffffffffffffffffffffff1673ffffffffffffffffffffffffffffffffffffffff16815260200190815260200160002060030160006101000a81548160ff0219169083600481111561765f57fe5b02179055506000600d60008573ffffffffffffffffffffffffffffffffffffffff1673ffffffffffffffffffffffffffffffffffffffff168152602001908152602001600020600101819055506000600d60008573ffffffffffffffffffffffffffffffffffffffff1673ffffffffffffffffffffffffffffffffffffffff168152602001908152602001600020600001819055506000601360008573ffffffffffffffffffffffffffffffffffffffff1673ffffffffffffffffffffffffffffffffffffffff168152602001908152602001600020600001819055506000601360008573ffffffffffffffffffffffffffffffffffffffff1673ffffffffffffffffffffffffffffffffffffffff1681526020019081526020016000206001018190555061778e8382618b2c565b600a60009054906101000a900473ffffffffffffffffffffffffffffffffffffffff1673ffffffffffffffffffffffffffffffffffffffff166329092d0e846040518263ffffffff1660e01b8152600401808273ffffffffffffffffffffffffffffffffffffffff1673ffffffffffffffffffffffffffffffffffffffff168152602001915050600060405180830381600087803b15801561782f57600080fd5b505af1158015617843573d6000803e3d6000fd5b50505050505050565b60008083111561788857600061787d8461786f8588615d8e90919063ffffffff16565b615e1490919063ffffffff16565b9050809150506178ac565b7fffffffffffffffffffffffffffffffffffffffffffffffffffffffffffffffff90505b9392505050565b6000806178e3670de0b6b3a76400006178d58587615d8e90919063ffffffff16565b615e1490919063ffffffff16565b905082811061793d576040517f08c379a000000000000000000000000000000000000000000000000000000000815260040180806020018281038252603681526020018061944a6036913960400191505060405180910390fd5b8091505092915050565b6000600d60008373ffffffffffffffffffffffffffffffffffffffff1673ffffffffffffffffffffffffffffffffffffffff1681526020019081526020016000206002015490506179a381600e54614ef990919063ffffffff16565b600e819055506000600d60008473ffffffffffffffffffffffffffffffffffffffff1673ffffffffffffffffffffffffffffffffffffffff168152602001908152602001600020600201819055505050565b8273ffffffffffffffffffffffffffffffffffffffff166338d995a8836040518263ffffffff1660e01b815260040180828152602001915050600060405180830381600087803b158015617a4857600080fd5b505af1158015617a5c573d6000803e3d6000fd5b505050508373ffffffffffffffffffffffffffffffffffffffff1663cfb9329a836040518263ffffffff1660e01b815260040180828152602001915050600060405180830381600087803b158015617ab357600080fd5b505af1158015617ac7573d6000803e3d6000fd5b505050508273ffffffffffffffffffffffffffffffffffffffff1663be41205f826040518263ffffffff1660e01b815260040180828152602001915050600060405180830381600087803b158015617b1e57600080fd5b505af1158015617b32573d6000803e3d6000fd5b5050505050505050565b6000838311158290617be9576040517f08c379a00000000000000000000000000000000000000000000000000000000081526004018080602001828103825283818151815260200191508051906020019080838360005b83811015617bae578082015181840152602081019050617b93565b50505050905090810190601f168015617bdb5780820380516001836020036101000a031916815260200191505b509250505060405180910390fd5b5060008385039050809150509392505050565b60008060006010541415617c1257829050617c4a565b6000600f5411617c1e57fe5b617c47601054617c39600f5486615d8e90919063ffffffff16565b615e1490919063ffffffff16565b90505b80915050919050565b617c5b619227565b617c63619273565b600160148054905011617c795781915050618212565b617c82876139cd565b856000018660200186602001876040018481525084815250848152508481525050505050617cb38260200151618e43565b826040018181525050670de0b6b3a7640000826060018181525050617ce982604001518360200151614ef990919063ffffffff16565b816000018181525050670de0b6b3a76400008611617e4c57617d158989836020015184604001516179f5565b617d1e87617947565b600082608001818152505060008260a001818152505081600001518260c001818152505080600001518260e0018181525050617d5b8760036175aa565b8673ffffffffffffffffffffffffffffffffffffffff167fea67486ed7ebe3eea8ab3390efd4a3c8aae48be5bea27df104a8af786c40843483600001518460200151600260405180848152602001838152602001826003811115617dbb57fe5b60ff168152602001935050505060405180910390a28673ffffffffffffffffffffffffffffffffffffffff167fc3770d654ed33aeea6bf11ac8ef05d02a6a04ed4686dd2f624d853bbec43cc8b6000806000600260405180858152602001848152602001838152602001826003811115617e3157fe5b60ff16815260200194505050505060405180910390a261820d565b670de0b6b3a764000086118015617e6a575067120a871cc002000086105b15617fbf57617e838989836020015184604001516179f5565b617e8c87617947565b617e9f8260000151826000015187618e57565b856080018660a0018760c0018860e0018481525084815250848152508481525050505050617ece8760036175aa565b8673ffffffffffffffffffffffffffffffffffffffff167fea67486ed7ebe3eea8ab3390efd4a3c8aae48be5bea27df104a8af786c40843483600001518460200151600260405180848152602001838152602001826003811115617f2e57fe5b60ff168152602001935050505060405180910390a28673ffffffffffffffffffffffffffffffffffffffff167fc3770d654ed33aeea6bf11ac8ef05d02a6a04ed4686dd2f624d853bbec43cc8b6000806000600260405180858152602001848152602001838152602001826003811115617fa457fe5b60ff16815260200194505050505060405180910390a261820c565b67120a871cc00200008610158015617fd657508386105b8015617fe6575084826000015111155b156181f957617fff8989836020015184604001516179f5565b600085141561800a57fe5b61801387617947565b6180268260000151836020015185618ee0565b91506180338760036175aa565b6000826101000151111561810857600760009054906101000a900473ffffffffffffffffffffffffffffffffffffffff1673ffffffffffffffffffffffffffffffffffffffff16633f10abab888461010001516040518363ffffffff1660e01b8152600401808373ffffffffffffffffffffffffffffffffffffffff1673ffffffffffffffffffffffffffffffffffffffff16815260200182815260200192505050600060405180830381600087803b1580156180ef57600080fd5b505af1158015618103573d6000803e3d6000fd5b505050505b8673ffffffffffffffffffffffffffffffffffffffff167fea67486ed7ebe3eea8ab3390efd4a3c8aae48be5bea27df104a8af786c40843483600001518460a0015160026040518084815260200183815260200182600381111561816857fe5b60ff168152602001935050505060405180910390a28673ffffffffffffffffffffffffffffffffffffffff167fc3770d654ed33aeea6bf11ac8ef05d02a6a04ed4686dd2f624d853bbec43cc8b60008060006002604051808581526020018481526020018381526020018260038111156181de57fe5b60ff16815260200194505050505060405180910390a261820b565b618201619227565b8092505050618212565b5b5b819150505b979650505050505050565b618225619047565b618240826040015184604001516165fa90919063ffffffff16565b816040018181525050618264826060015184606001516165fa90919063ffffffff16565b816060018181525050618288826000015184602001516165fa90919063ffffffff16565b8160200181815250506182ac826020015184600001516165fa90919063ffffffff16565b8160000181815250506182d0826080015184608001516165fa90919063ffffffff16565b8160800181815250506182f48260a001518460a001516165fa90919063ffffffff16565b8160a00181815250506183188260c001518460c001516165fa90919063ffffffff16565b8160c001818152505061833c8260e001518460e001516165fa90919063ffffffff16565b8160e00181815250506183628261010001518461010001516165fa90919063ffffffff16565b8161010001818152505080905092915050565b60008061838385858561784c565b90506714d1120d7b16000081109150509392505050565b6183a2619227565b6183aa619273565b6183b3846139cd565b8560000186602001866020018760400184815250848152508481525084815250505050506183eb8686836020015184604001516179f5565b6183f484617947565b6184018260200151618e43565b826040018181525050670de0b6b3a7640000826060018181525050600061843983604001518460200151614ef990919063ffffffff16565b905061844a83600001518286618e57565b866080018760a0018860c0018960e00184815250848152508481525084815250505050506184798560036175aa565b8473ffffffffffffffffffffffffffffffffffffffff167fea67486ed7ebe3eea8ab3390efd4a3c8aae48be5bea27df104a8af786c408434846000015185602001516001604051808481526020018381526020018260038111156184d957fe5b60ff168152602001935050505060405180910390a28473ffffffffffffffffffffffffffffffffffffffff167fc3770d654ed33aeea6bf11ac8ef05d02a6a04ed4686dd2f624d853bbec43cc8b600080600060016040518085815260200184815260200183815260200182600381111561854f57fe5b60ff16815260200194505050505060405180910390a28292505050949350505050565b60008183106185815781618583565b825b905092915050565b60008083118290618637576040517f08c379a00000000000000000000000000000000000000000000000000000000081526004018080602001828103825283818151815260200191508051906020019080838360005b838110156185fc5780820151818401526020810190506185e1565b50505050905090810190601f1680156186295780820380516001836020036101000a031916815260200191505b509250505060405180910390fd5b50600083858161864357fe5b049050809150509392505050565b600061867b603c61866d600c5442614ef990919063ffffffff16565b615e1490919063ffffffff16565b905090565b6000631f54050082111561869657631f54050091505b60008214156186af57670de0b6b3a76400009050618761565b6000670de0b6b3a76400009050600084905060008490505b6001811115618751576000600282816186dc57fe5b06141561870a576186ed8283618fb6565b9150618703600282615e1490919063ffffffff16565b905061874c565b6187148284618fb6565b92506187208283618fb6565b9150618749600261873b600184614ef990919063ffffffff16565b615e1490919063ffffffff16565b90505b6186c7565b61875b8284618fb6565b93505050505b92915050565b600080823b905060008111915050919050565b836040015173ffffffffffffffffffffffffffffffffffffffff16639dc29fac600660009054906101000a900473ffffffffffffffffffffffffffffffffffffffff16846040518363ffffffff1660e01b8152600401808373ffffffffffffffffffffffffffffffffffffffff1673ffffffffffffffffffffffffffffffffffffffff16815260200182815260200192505050600060405180830381600087803b15801561882757600080fd5b505af115801561883b573d6000803e3d6000fd5b50505050836000015173ffffffffffffffffffffffffffffffffffffffff166338d995a8836040518263ffffffff1660e01b815260040180828152602001915050600060405180830381600087803b15801561889657600080fd5b505af11580156188aa573d6000803e3d6000fd5b505050508360a0015173ffffffffffffffffffffffffffffffffffffffff16633f10abab84836040518363ffffffff1660e01b8152600401808373ffffffffffffffffffffffffffffffffffffffff1673ffffffffffffffffffffffffffffffffffffffff16815260200182815260200192505050600060405180830381600087803b15801561893957600080fd5b505af115801561894d573d6000803e3d6000fd5b50505050836000015173ffffffffffffffffffffffffffffffffffffffff166364a197f38560a00151836040518363ffffffff1660e01b8152600401808373ffffffffffffffffffffffffffffffffffffffff1673ffffffffffffffffffffffffffffffffffffffff16815260200182815260200192505050600060405180830381600087803b1580156189e057600080fd5b505af11580156189f4573d6000803e3d6000fd5b5050505050505050565b6000618a1b670de0b6b3a764000083614ef990919063ffffffff16565b9050919050565b600181118015618ad457506001600a60009054906101000a900473ffffffffffffffffffffffffffffffffffffffff1673ffffffffffffffffffffffffffffffffffffffff1663de8fa4316040518163ffffffff1660e01b815260040160206040518083038186803b158015618a9757600080fd5b505afa158015618aab573d6000803e3d6000fd5b505050506040513d6020811015618ac157600080fd5b8101908080519060200190929190505050115b618b29576040517f08c379a000000000000000000000000000000000000000000000000000000000815260040180806020018281038252602a815260200180619312602a913960400191505060405180910390fd5b50565b6000600d60008473ffffffffffffffffffffffffffffffffffffffff1673ffffffffffffffffffffffffffffffffffffffff16815260200190815260200160002060030160009054906101000a900460ff16905060006004811115618b8d57fe5b816004811115618b9957fe5b14158015618bbe575060016004811115618baf57fe5b816004811115618bbb57fe5b14155b618bc457fe5b6000600d60008573ffffffffffffffffffffffffffffffffffffffff1673ffffffffffffffffffffffffffffffffffffffff16815260200190815260200160002060030160019054906101000a90046fffffffffffffffffffffffffffffffff16905060008390506000618c42600183614ef990919063ffffffff16565b905080836fffffffffffffffffffffffffffffffff161115618c6057fe5b600060148281548110618c6f57fe5b9060005260206000200160009054906101000a900473ffffffffffffffffffffffffffffffffffffffff169050806014856fffffffffffffffffffffffffffffffff1681548110618cbc57fe5b9060005260206000200160006101000a81548173ffffffffffffffffffffffffffffffffffffffff021916908373ffffffffffffffffffffffffffffffffffffffff16021790555083600d60008373ffffffffffffffffffffffffffffffffffffffff1673ffffffffffffffffffffffffffffffffffffffff16815260200190815260200160002060030160016101000a8154816fffffffffffffffffffffffffffffffff02191690836fffffffffffffffffffffffffffffffff1602179055507f02b04ae5f7be9ca7c103293a2aa15f3c339d15d6eda53b721fef7b0e609c831a8185604051808373ffffffffffffffffffffffffffffffffffffffff1673ffffffffffffffffffffffffffffffffffffffff168152602001826fffffffffffffffffffffffffffffffff1681526020019250505060405180910390a16014805480618e0557fe5b6001900381819060005260206000200160006101000a81549073ffffffffffffffffffffffffffffffffffffffff0219169055905550505050505050565b600060c88281618e4f57fe5b049050919050565b6000806000806000851115618ec857618e708786618572565b9350618e9787618e898689615d8e90919063ffffffff16565b615e1490919063ffffffff16565b9250618eac8488614ef990919063ffffffff16565b9150618ec18387614ef990919063ffffffff16565b9050618ed7565b60009350600092508691508590505b93509350935093565b618ee8619227565b83816000018181525050828160200181815250506000618f2b83618f1d67120a871cc002000088615d8e90919063ffffffff16565b615e1490919063ffffffff16565b9050618f3681618e43565b826040018181525050670de0b6b3a764000082606001818152505084826080018181525050618f72826040015182614ef990919063ffffffff16565b8260a0018181525050618f8e8185614ef990919063ffffffff16565b8261010001818152505060008260c001818152505060008260e0018181525050509392505050565b600080618fcc8385615d8e90919063ffffffff16565b905061900d670de0b6b3a7640000618fff6002670de0b6b3a764000081618fef57fe5b04846165fa90919063ffffffff16565b615e1490919063ffffffff16565b91505092915050565b6040518060a00160405280600081526020016000815260200160001515815260200160008152602001600081525090565b6040518061012001604052806000815260200160008152602001600081526020016000815260200160008152602001600081526020016000815260200160008152602001600081525090565b6040518060e00160405280600073ffffffffffffffffffffffffffffffffffffffff168152602001600073ffffffffffffffffffffffffffffffffffffffff168152602001600073ffffffffffffffffffffffffffffffffffffffff168152602001600073ffffffffffffffffffffffffffffffffffffffff168152602001600073ffffffffffffffffffffffffffffffffffffffff168152602001600073ffffffffffffffffffffffffffffffffffffffff168152602001600073ffffffffffffffffffffffffffffffffffffffff1681525090565b60405180610100016040528060008152602001600081526020016000815260200160008152602001600081526020016000815260200160008152602001600081525090565b604051806060016040528060008152602001600081526020016000151581525090565b6040518060e00160405280600081526020016000815260200160008152602001600073ffffffffffffffffffffffffffffffffffffffff16815260200160001515815260200160008152602001600081525090565b6040518061012001604052806000815260200160008152602001600081526020016000815260200160008152602001600081526020016000815260200160008152602001600081525090565b6040518060600160405280600081526020016000815260200160008152509056fe4f776e61626c653a206e6577206f776e657220697320746865207a65726f206164647265737354726f76654d616e616765723a20556e61626c6520746f2072656465656d20616e7920616d6f756e74496e697469616c697a61626c653a20636f6e747261637420697320616c726561647920696e697469616c697a656454726f76654d616e616765723a204f6e6c79206f6e652074726f766520696e207468652073797374656d536166654d6174683a206d756c7469706c69636174696f6e206f766572666c6f7754726f76654d616e616765723a2052657175657374656420726564656d7074696f6e20616d6f756e74206d757374206265203c3d20757365722773204c55534420746f6b656e2062616c616e636554726f76654d616e616765723a2043616c6c6572206973206e6f742074686520426f72726f7765724f7065726174696f6e7320636f6e747261637454726f76654d616e616765723a2043616c6c646174612061646472657373206172726179206d757374206e6f7420626520656d70747954726f76654d616e616765723a20416d6f756e74206d7573742062652067726561746572207468616e207a65726f54726f76654d616e616765723a2046656520776f756c642065617420757020616c6c2072657475726e656420636f6c6c61746572616c4d6178206665652070657263656e74616765206d757374206265206265747765656e20302e352520616e64203130302554726f76654d616e616765723a2043616e6e6f742072656465656d207768656e20544352203c204d435254726f76654d616e616765723a206e6f7468696e6720746f206c697175696461746554726f76654d616e616765723a2054726f766520646f6573206e6f74206578697374206f7220697320636c6f736564a2646970667358221220282c8feb75166002628c20e08c18daaab6058060097e7db01970942f4aa2070c64736f6c634300060b0033",
  "linkReferences": {},
  "deployedLinkReferences": {}
}