{
  "_format": "hh-sol-artifact-1",
  "contractName": "StabilityPool",
  "sourceName": "contracts/StabilityPool.sol",
  "abi": [
    {
      "anonymous": false,
      "inputs": [
        {
          "indexed": false,
          "internalType": "address",
          "name": "_newActivePoolAddress",
          "type": "address"
        }
      ],
      "name": "ActivePoolAddressChanged",
      "type": "event"
    },
    {
      "anonymous": false,
      "inputs": [
        {
          "indexed": false,
          "internalType": "address",
          "name": "_newBorrowerOperationsAddress",
          "type": "address"
        }
      ],
      "name": "BorrowerOperationsAddressChanged",
      "type": "event"
    },
    {
      "anonymous": false,
      "inputs": [
        {
          "indexed": false,
          "internalType": "address",
          "name": "_newCommunityIssuanceAddress",
          "type": "address"
        }
      ],
      "name": "CommunityIssuanceAddressChanged",
      "type": "event"
    },
    {
      "anonymous": false,
      "inputs": [
        {
          "indexed": false,
          "internalType": "address",
          "name": "_newDefaultPoolAddress",
          "type": "address"
        }
      ],
      "name": "DefaultPoolAddressChanged",
      "type": "event"
    },
    {
      "anonymous": false,
      "inputs": [
        {
          "indexed": true,
          "internalType": "address",
          "name": "_depositor",
          "type": "address"
        },
        {
          "indexed": false,
          "internalType": "uint256",
          "name": "_P",
          "type": "uint256"
        },
        {
          "indexed": false,
          "internalType": "uint256",
          "name": "_S",
          "type": "uint256"
        },
        {
          "indexed": false,
          "internalType": "uint256",
          "name": "_G",
          "type": "uint256"
        }
      ],
      "name": "DepositSnapshotUpdated",
      "type": "event"
    },
    {
      "anonymous": false,
      "inputs": [
        {
          "indexed": true,
          "internalType": "address",
          "name": "_depositor",
          "type": "address"
        },
        {
          "indexed": false,
          "internalType": "uint256",
          "name": "_ETH",
          "type": "uint256"
        },
        {
          "indexed": false,
          "internalType": "uint256",
          "name": "_LUSDLoss",
          "type": "uint256"
        }
      ],
      "name": "ETHGainWithdrawn",
      "type": "event"
    },
    {
      "anonymous": false,
      "inputs": [
        {
          "indexed": false,
          "internalType": "uint128",
          "name": "_currentEpoch",
          "type": "uint128"
        }
      ],
      "name": "EpochUpdated",
      "type": "event"
    },
    {
      "anonymous": false,
      "inputs": [
        {
          "indexed": false,
          "internalType": "address",
          "name": "_to",
          "type": "address"
        },
        {
          "indexed": false,
          "internalType": "uint256",
          "name": "_amount",
          "type": "uint256"
        }
      ],
      "name": "EtherSent",
      "type": "event"
    },
    {
      "anonymous": false,
      "inputs": [
        {
          "indexed": true,
          "internalType": "address",
          "name": "_frontEnd",
          "type": "address"
        },
        {
          "indexed": false,
          "internalType": "uint256",
          "name": "_kickbackRate",
          "type": "uint256"
        }
      ],
      "name": "FrontEndRegistered",
      "type": "event"
    },
    {
      "anonymous": false,
      "inputs": [
        {
          "indexed": true,
          "internalType": "address",
          "name": "_frontEnd",
          "type": "address"
        },
        {
          "indexed": false,
          "internalType": "uint256",
          "name": "_P",
          "type": "uint256"
        },
        {
          "indexed": false,
          "internalType": "uint256",
          "name": "_G",
          "type": "uint256"
        }
      ],
      "name": "FrontEndSnapshotUpdated",
      "type": "event"
    },
    {
      "anonymous": false,
      "inputs": [
        {
          "indexed": true,
          "internalType": "address",
          "name": "_frontEnd",
          "type": "address"
        },
        {
          "indexed": false,
          "internalType": "uint256",
          "name": "_newFrontEndStake",
          "type": "uint256"
        },
        {
          "indexed": false,
          "internalType": "address",
          "name": "_depositor",
          "type": "address"
        }
      ],
      "name": "FrontEndStakeChanged",
      "type": "event"
    },
    {
      "anonymous": false,
      "inputs": [
        {
          "indexed": true,
          "internalType": "address",
          "name": "_depositor",
          "type": "address"
        },
        {
          "indexed": true,
          "internalType": "address",
          "name": "_frontEnd",
          "type": "address"
        }
      ],
      "name": "FrontEndTagSet",
      "type": "event"
    },
    {
      "anonymous": false,
      "inputs": [
        {
          "indexed": false,
          "internalType": "uint256",
          "name": "_G",
          "type": "uint256"
        },
        {
          "indexed": false,
          "internalType": "uint128",
          "name": "_epoch",
          "type": "uint128"
        },
        {
          "indexed": false,
          "internalType": "uint128",
          "name": "_scale",
          "type": "uint128"
        }
      ],
      "name": "G_Updated",
      "type": "event"
    },
    {
      "anonymous": false,
      "inputs": [
        {
          "indexed": true,
          "internalType": "address",
          "name": "_depositor",
          "type": "address"
        },
        {
          "indexed": false,
          "internalType": "uint256",
          "name": "_LQTY",
          "type": "uint256"
        }
      ],
      "name": "LQTYPaidToDepositor",
      "type": "event"
    },
    {
      "anonymous": false,
      "inputs": [
        {
          "indexed": true,
          "internalType": "address",
          "name": "_frontEnd",
          "type": "address"
        },
        {
          "indexed": false,
          "internalType": "uint256",
          "name": "_LQTY",
          "type": "uint256"
        }
      ],
      "name": "LQTYPaidToFrontEnd",
      "type": "event"
    },
    {
      "anonymous": false,
      "inputs": [
        {
          "indexed": false,
          "internalType": "address",
          "name": "_newLUSDTokenAddress",
          "type": "address"
        }
      ],
      "name": "LUSDTokenAddressChanged",
      "type": "event"
    },
    {
      "anonymous": false,
      "inputs": [
        {
          "indexed": true,
          "internalType": "address",
          "name": "previousOwner",
          "type": "address"
        },
        {
          "indexed": true,
          "internalType": "address",
          "name": "newOwner",
          "type": "address"
        }
      ],
      "name": "OwnershipTransferred",
      "type": "event"
    },
    {
      "anonymous": false,
      "inputs": [
        {
          "indexed": false,
          "internalType": "uint256",
          "name": "_P",
          "type": "uint256"
        }
      ],
      "name": "P_Updated",
      "type": "event"
    },
    {
      "anonymous": false,
      "inputs": [
        {
          "indexed": false,
          "internalType": "address",
          "name": "_newPriceFeedAddress",
          "type": "address"
        }
      ],
      "name": "PriceFeedAddressChanged",
      "type": "event"
    },
    {
      "anonymous": false,
      "inputs": [
        {
          "indexed": false,
          "internalType": "uint256",
          "name": "_S",
          "type": "uint256"
        },
        {
          "indexed": false,
          "internalType": "uint128",
          "name": "_epoch",
          "type": "uint128"
        },
        {
          "indexed": false,
          "internalType": "uint128",
          "name": "_scale",
          "type": "uint128"
        }
      ],
      "name": "S_Updated",
      "type": "event"
    },
    {
      "anonymous": false,
      "inputs": [
        {
          "indexed": false,
          "internalType": "uint128",
          "name": "_currentScale",
          "type": "uint128"
        }
      ],
      "name": "ScaleUpdated",
      "type": "event"
    },
    {
      "anonymous": false,
      "inputs": [
        {
          "indexed": false,
          "internalType": "address",
          "name": "_newSortedTrovesAddress",
          "type": "address"
        }
      ],
      "name": "SortedTrovesAddressChanged",
      "type": "event"
    },
    {
      "anonymous": false,
      "inputs": [
        {
          "indexed": false,
          "internalType": "uint256",
          "name": "_newBalance",
          "type": "uint256"
        }
      ],
      "name": "StabilityPoolETHBalanceUpdated",
      "type": "event"
    },
    {
      "anonymous": false,
      "inputs": [
        {
          "indexed": false,
          "internalType": "uint256",
          "name": "_newBalance",
          "type": "uint256"
        }
      ],
      "name": "StabilityPoolLUSDBalanceUpdated",
      "type": "event"
    },
    {
      "anonymous": false,
      "inputs": [
        {
          "indexed": false,
          "internalType": "address",
          "name": "_newTroveManagerAddress",
          "type": "address"
        }
      ],
      "name": "TroveManagerAddressChanged",
      "type": "event"
    },
    {
      "anonymous": false,
      "inputs": [
        {
          "indexed": true,
          "internalType": "address",
          "name": "_depositor",
          "type": "address"
        },
        {
          "indexed": false,
          "internalType": "uint256",
          "name": "_newDeposit",
          "type": "uint256"
        }
      ],
      "name": "UserDepositChanged",
      "type": "event"
    },
    {
      "inputs": [],
      "name": "BORROWING_FEE_FLOOR",
      "outputs": [
        {
          "internalType": "uint256",
          "name": "",
          "type": "uint256"
        }
      ],
      "stateMutability": "view",
      "type": "function"
    },
    {
      "inputs": [],
      "name": "CCR",
      "outputs": [
        {
          "internalType": "uint256",
          "name": "",
          "type": "uint256"
        }
      ],
      "stateMutability": "view",
      "type": "function"
    },
    {
      "inputs": [],
      "name": "DECIMAL_PRECISION",
      "outputs": [
        {
          "internalType": "uint256",
          "name": "",
          "type": "uint256"
        }
      ],
      "stateMutability": "view",
      "type": "function"
    },
    {
      "inputs": [],
      "name": "LUSD_GAS_COMPENSATION",
      "outputs": [
        {
          "internalType": "uint256",
          "name": "",
          "type": "uint256"
        }
      ],
      "stateMutability": "view",
      "type": "function"
    },
    {
      "inputs": [],
      "name": "MCR",
      "outputs": [
        {
          "internalType": "uint256",
          "name": "",
          "type": "uint256"
        }
      ],
      "stateMutability": "view",
      "type": "function"
    },
    {
      "inputs": [],
      "name": "MIN_NET_DEBT",
      "outputs": [
        {
          "internalType": "uint256",
          "name": "",
          "type": "uint256"
        }
      ],
      "stateMutability": "view",
      "type": "function"
    },
    {
      "inputs": [],
      "name": "NAME",
      "outputs": [
        {
          "internalType": "string",
          "name": "",
          "type": "string"
        }
      ],
      "stateMutability": "view",
      "type": "function"
    },
    {
      "inputs": [],
      "name": "P",
      "outputs": [
        {
          "internalType": "uint256",
          "name": "",
          "type": "uint256"
        }
      ],
      "stateMutability": "view",
      "type": "function"
    },
    {
      "inputs": [],
      "name": "PERCENT_DIVISOR",
      "outputs": [
        {
          "internalType": "uint256",
          "name": "",
          "type": "uint256"
        }
      ],
      "stateMutability": "view",
      "type": "function"
    },
    {
      "inputs": [],
      "name": "SCALE_FACTOR",
      "outputs": [
        {
          "internalType": "uint256",
          "name": "",
          "type": "uint256"
        }
      ],
      "stateMutability": "view",
      "type": "function"
    },
    {
      "inputs": [],
      "name": "_100pct",
      "outputs": [
        {
          "internalType": "uint256",
          "name": "",
          "type": "uint256"
        }
      ],
      "stateMutability": "view",
      "type": "function"
    },
    {
      "inputs": [],
      "name": "activePool",
      "outputs": [
        {
          "internalType": "contract IActivePool",
          "name": "",
          "type": "address"
        }
      ],
      "stateMutability": "view",
      "type": "function"
    },
    {
      "inputs": [],
      "name": "borrowerOperations",
      "outputs": [
        {
          "internalType": "contract IBorrowerOperations",
          "name": "",
          "type": "address"
        }
      ],
      "stateMutability": "view",
      "type": "function"
    },
    {
      "inputs": [],
      "name": "communityIssuance",
      "outputs": [
        {
          "internalType": "contract ICommunityIssuance",
          "name": "",
          "type": "address"
        }
      ],
      "stateMutability": "view",
      "type": "function"
    },
    {
      "inputs": [],
      "name": "currentEpoch",
      "outputs": [
        {
          "internalType": "uint128",
          "name": "",
          "type": "uint128"
        }
      ],
      "stateMutability": "view",
      "type": "function"
    },
    {
      "inputs": [],
      "name": "currentScale",
      "outputs": [
        {
          "internalType": "uint128",
          "name": "",
          "type": "uint128"
        }
      ],
      "stateMutability": "view",
      "type": "function"
    },
    {
      "inputs": [],
      "name": "defaultPool",
      "outputs": [
        {
          "internalType": "contract IDefaultPool",
          "name": "",
          "type": "address"
        }
      ],
      "stateMutability": "view",
      "type": "function"
    },
    {
      "inputs": [
        {
          "internalType": "address",
          "name": "",
          "type": "address"
        }
      ],
      "name": "depositSnapshots",
      "outputs": [
        {
          "internalType": "uint256",
          "name": "S",
          "type": "uint256"
        },
        {
          "internalType": "uint256",
          "name": "P",
          "type": "uint256"
        },
        {
          "internalType": "uint256",
          "name": "G",
          "type": "uint256"
        },
        {
          "internalType": "uint128",
          "name": "scale",
          "type": "uint128"
        },
        {
          "internalType": "uint128",
          "name": "epoch",
          "type": "uint128"
        }
      ],
      "stateMutability": "view",
      "type": "function"
    },
    {
      "inputs": [
        {
          "internalType": "address",
          "name": "",
          "type": "address"
        }
      ],
      "name": "deposits",
      "outputs": [
        {
          "internalType": "uint256",
          "name": "initialValue",
          "type": "uint256"
        },
        {
          "internalType": "address",
          "name": "frontEndTag",
          "type": "address"
        }
      ],
      "stateMutability": "view",
      "type": "function"
    },
    {
      "inputs": [
        {
          "internalType": "uint128",
          "name": "",
          "type": "uint128"
        },
        {
          "internalType": "uint128",
          "name": "",
          "type": "uint128"
        }
      ],
      "name": "epochToScaleToG",
      "outputs": [
        {
          "internalType": "uint256",
          "name": "",
          "type": "uint256"
        }
      ],
      "stateMutability": "view",
      "type": "function"
    },
    {
      "inputs": [
        {
          "internalType": "uint128",
          "name": "",
          "type": "uint128"
        },
        {
          "internalType": "uint128",
          "name": "",
          "type": "uint128"
        }
      ],
      "name": "epochToScaleToSum",
      "outputs": [
        {
          "internalType": "uint256",
          "name": "",
          "type": "uint256"
        }
      ],
      "stateMutability": "view",
      "type": "function"
    },
    {
      "inputs": [
        {
          "internalType": "address",
          "name": "",
          "type": "address"
        }
      ],
      "name": "frontEndSnapshots",
      "outputs": [
        {
          "internalType": "uint256",
          "name": "S",
          "type": "uint256"
        },
        {
          "internalType": "uint256",
          "name": "P",
          "type": "uint256"
        },
        {
          "internalType": "uint256",
          "name": "G",
          "type": "uint256"
        },
        {
          "internalType": "uint128",
          "name": "scale",
          "type": "uint128"
        },
        {
          "internalType": "uint128",
          "name": "epoch",
          "type": "uint128"
        }
      ],
      "stateMutability": "view",
      "type": "function"
    },
    {
      "inputs": [
        {
          "internalType": "address",
          "name": "",
          "type": "address"
        }
      ],
      "name": "frontEndStakes",
      "outputs": [
        {
          "internalType": "uint256",
          "name": "",
          "type": "uint256"
        }
      ],
      "stateMutability": "view",
      "type": "function"
    },
    {
      "inputs": [
        {
          "internalType": "address",
          "name": "",
          "type": "address"
        }
      ],
      "name": "frontEnds",
      "outputs": [
        {
          "internalType": "uint256",
          "name": "kickbackRate",
          "type": "uint256"
        },
        {
          "internalType": "bool",
          "name": "registered",
          "type": "bool"
        }
      ],
      "stateMutability": "view",
      "type": "function"
    },
    {
      "inputs": [
        {
          "internalType": "address",
          "name": "_frontEnd",
          "type": "address"
        }
      ],
      "name": "getCompoundedFrontEndStake",
      "outputs": [
        {
          "internalType": "uint256",
          "name": "",
          "type": "uint256"
        }
      ],
      "stateMutability": "view",
      "type": "function"
    },
    {
      "inputs": [
        {
          "internalType": "address",
          "name": "_depositor",
          "type": "address"
        }
      ],
      "name": "getCompoundedLUSDDeposit",
      "outputs": [
        {
          "internalType": "uint256",
          "name": "",
          "type": "uint256"
        }
      ],
      "stateMutability": "view",
      "type": "function"
    },
    {
      "inputs": [
        {
          "internalType": "address",
          "name": "_depositor",
          "type": "address"
        }
      ],
      "name": "getDepositorETHGain",
      "outputs": [
        {
          "internalType": "uint256",
          "name": "",
          "type": "uint256"
        }
      ],
      "stateMutability": "view",
      "type": "function"
    },
    {
      "inputs": [
        {
          "internalType": "address",
          "name": "_depositor",
          "type": "address"
        }
      ],
      "name": "getDepositorLQTYGain",
      "outputs": [
        {
          "internalType": "uint256",
          "name": "",
          "type": "uint256"
        }
      ],
      "stateMutability": "view",
      "type": "function"
    },
    {
      "inputs": [],
      "name": "getETH",
      "outputs": [
        {
          "internalType": "uint256",
          "name": "",
          "type": "uint256"
        }
      ],
      "stateMutability": "view",
      "type": "function"
    },
    {
      "inputs": [],
      "name": "getEntireSystemColl",
      "outputs": [
        {
          "internalType": "uint256",
          "name": "entireSystemColl",
          "type": "uint256"
        }
      ],
      "stateMutability": "view",
      "type": "function"
    },
    {
      "inputs": [],
      "name": "getEntireSystemDebt",
      "outputs": [
        {
          "internalType": "uint256",
          "name": "entireSystemDebt",
          "type": "uint256"
        }
      ],
      "stateMutability": "view",
      "type": "function"
    },
    {
      "inputs": [
        {
          "internalType": "address",
          "name": "_frontEnd",
          "type": "address"
        }
      ],
      "name": "getFrontEndLQTYGain",
      "outputs": [
        {
          "internalType": "uint256",
          "name": "",
          "type": "uint256"
        }
      ],
      "stateMutability": "view",
      "type": "function"
    },
    {
      "inputs": [],
      "name": "getTotalLUSDDeposits",
      "outputs": [
        {
          "internalType": "uint256",
          "name": "",
          "type": "uint256"
        }
      ],
      "stateMutability": "view",
      "type": "function"
    },
    {
      "inputs": [],
      "name": "initialize",
      "outputs": [],
      "stateMutability": "nonpayable",
      "type": "function"
    },
    {
      "inputs": [],
      "name": "isOwner",
      "outputs": [
        {
          "internalType": "bool",
          "name": "",
          "type": "bool"
        }
      ],
      "stateMutability": "view",
      "type": "function"
    },
    {
      "inputs": [],
      "name": "lastETHError_Offset",
      "outputs": [
        {
          "internalType": "uint256",
          "name": "",
          "type": "uint256"
        }
      ],
      "stateMutability": "view",
      "type": "function"
    },
    {
      "inputs": [],
      "name": "lastLQTYError",
      "outputs": [
        {
          "internalType": "uint256",
          "name": "",
          "type": "uint256"
        }
      ],
      "stateMutability": "view",
      "type": "function"
    },
    {
      "inputs": [],
      "name": "lastLUSDLossError_Offset",
      "outputs": [
        {
          "internalType": "uint256",
          "name": "",
          "type": "uint256"
        }
      ],
      "stateMutability": "view",
      "type": "function"
    },
    {
      "inputs": [],
      "name": "lusdToken",
      "outputs": [
        {
          "internalType": "contract ILUSDToken",
          "name": "",
          "type": "address"
        }
      ],
      "stateMutability": "view",
      "type": "function"
    },
    {
      "inputs": [
        {
          "internalType": "uint256",
          "name": "_debtToOffset",
          "type": "uint256"
        },
        {
          "internalType": "uint256",
          "name": "_collToAdd",
          "type": "uint256"
        }
      ],
      "name": "offset",
      "outputs": [],
      "stateMutability": "nonpayable",
      "type": "function"
    },
    {
      "inputs": [],
      "name": "owner",
      "outputs": [
        {
          "internalType": "address",
          "name": "",
          "type": "address"
        }
      ],
      "stateMutability": "view",
      "type": "function"
    },
    {
      "inputs": [],
      "name": "priceFeed",
      "outputs": [
        {
          "internalType": "contract IPriceFeed",
          "name": "",
          "type": "address"
        }
      ],
      "stateMutability": "view",
      "type": "function"
    },
    {
      "inputs": [
        {
          "internalType": "uint256",
          "name": "_amount",
          "type": "uint256"
        },
        {
          "internalType": "address",
          "name": "_frontEndTag",
          "type": "address"
        }
      ],
      "name": "provideToSP",
      "outputs": [],
      "stateMutability": "nonpayable",
      "type": "function"
    },
    {
      "inputs": [
        {
          "internalType": "uint256",
          "name": "_kickbackRate",
          "type": "uint256"
        }
      ],
      "name": "registerFrontEnd",
      "outputs": [],
      "stateMutability": "nonpayable",
      "type": "function"
    },
    {
      "inputs": [
        {
          "internalType": "address",
          "name": "_borrowerOperationsAddress",
          "type": "address"
        },
        {
          "internalType": "address",
          "name": "_troveManagerAddress",
          "type": "address"
        },
        {
          "internalType": "address",
          "name": "_activePoolAddress",
          "type": "address"
        },
        {
          "internalType": "address",
          "name": "_lusdTokenAddress",
          "type": "address"
        },
        {
          "internalType": "address",
          "name": "_sortedTrovesAddress",
          "type": "address"
        },
        {
          "internalType": "address",
          "name": "_priceFeedAddress",
          "type": "address"
        },
        {
          "internalType": "address",
          "name": "_communityIssuanceAddress",
          "type": "address"
        }
      ],
      "name": "setAddresses",
      "outputs": [],
      "stateMutability": "nonpayable",
      "type": "function"
    },
    {
      "inputs": [],
      "name": "sortedTroves",
      "outputs": [
        {
          "internalType": "contract ISortedTroves",
          "name": "",
          "type": "address"
        }
      ],
      "stateMutability": "view",
      "type": "function"
    },
    {
      "inputs": [
        {
          "internalType": "address",
          "name": "newOwner",
          "type": "address"
        }
      ],
      "name": "transferOwnership",
      "outputs": [],
      "stateMutability": "nonpayable",
      "type": "function"
    },
    {
      "inputs": [],
      "name": "troveManager",
      "outputs": [
        {
          "internalType": "contract ITroveManager",
          "name": "",
          "type": "address"
        }
      ],
      "stateMutability": "view",
      "type": "function"
    },
    {
      "inputs": [
        {
          "internalType": "address",
          "name": "_upperHint",
          "type": "address"
        },
        {
          "internalType": "address",
          "name": "_lowerHint",
          "type": "address"
        }
      ],
      "name": "withdrawETHGainToTrove",
      "outputs": [],
      "stateMutability": "nonpayable",
      "type": "function"
    },
    {
      "inputs": [
        {
          "internalType": "uint256",
          "name": "_amount",
          "type": "uint256"
        }
      ],
      "name": "withdrawFromSP",
      "outputs": [],
      "stateMutability": "nonpayable",
      "type": "function"
    },
    {
      "stateMutability": "payable",
      "type": "receive"
    }
  ],
  "bytecode": "0x608060405234801561001057600080fd5b50616dc480620000216000396000f3fe6080604052600436106102cd5760003560e01c806382e0a57411610175578063ae918754116100dc578063df9cd84f11610095578063f5f1595d1161006f578063f5f1595d146111d5578063f92d34331461123a578063fc7e286d14611265578063fda0101a146112fd57610330565b8063df9cd84f1461100e578063eaa8ba7f14611073578063f2fde38b1461118457610330565b8063ae91875414610e7a578063b83f91a214610ed1578063ce4b5bbe14610f28578063cef941e814610f53578063d4ca057514610f7e578063d7fb044314610fe357610330565b806395fb16bb1161012e57806395fb16bb14610c7e5780639bf2f1ac14610cd5578063a20baee614610d00578063a3f4df7e14610d2b578063a4e59ac814610dbb578063a7bfff9714610e0a57610330565b806382e0a57414610a5c57806386da082414610ad9578063887105d314610ba25780638b8fbd9214610bcd5780638da5cb5b14610bf85780638f32d59b14610c4f57610330565b8063538153ca11610234578063741bef1a116101ed578063794e5724116101c7578063794e572414610998578063795d26c3146109c35780637f7dde4a146109ee5780638129fc1c14610a4557610330565b8063741bef1a1461089b57806376671808146108f257806377553ad41461094157610330565b8063538153ca1461071f578063556be1011461074a5780635733d58f146107855780635d2de642146107b05780635f788d651461081557806372fe25aa1461087057610330565b80632e86bbd8116102865780632e86bbd814610571578063335525ad1461059c578063389e92a5146105e15780633cc74225146106465780633d83908a1461069d5780634870dd9a146106f457610330565b806314f6c3be1461033557806316b9d3c5146103605780631bf43555146104295780631cdc47001461045457806328a0a04d146104b95780632e54bf951461053657610330565b36610330576102da61136e565b6102ef3460095461141590919063ffffffff16565b6009819055507fceb6d671277d4354fd29977ada70695fbd93a16612abf765d6b0e25c28dc6db36009546040518082815260200191505060405180910390a1005b600080fd5b34801561034157600080fd5b5061034a61149d565b6040518082815260200191505060405180910390f35b34801561036c57600080fd5b506103af6004803603602081101561038357600080fd5b81019080803573ffffffffffffffffffffffffffffffffffffffff1690602001909291905050506114a7565b60405180868152602001858152602001848152602001836fffffffffffffffffffffffffffffffff166fffffffffffffffffffffffffffffffff168152602001826fffffffffffffffffffffffffffffffff166fffffffffffffffffffffffffffffffff1681526020019550505050505060405180910390f35b34801561043557600080fd5b5061043e611515565b6040518082815260200191505060405180910390f35b34801561046057600080fd5b506104a36004803603602081101561047757600080fd5b81019080803573ffffffffffffffffffffffffffffffffffffffff169060200190929190505050611522565b6040518082815260200191505060405180910390f35b3480156104c557600080fd5b50610520600480360360408110156104dc57600080fd5b8101908080356fffffffffffffffffffffffffffffffff16906020019092919080356fffffffffffffffffffffffffffffffff16906020019092919050505061169d565b6040518082815260200191505060405180910390f35b34801561054257600080fd5b5061056f6004803603602081101561055957600080fd5b81019080803590602001909291905050506116c2565b005b34801561057d57600080fd5b50610586611999565b6040518082815260200191505060405180910390f35b3480156105a857600080fd5b506105df600480360360408110156105bf57600080fd5b8101908080359060200190929190803590602001909291905050506119a5565b005b3480156105ed57600080fd5b506106306004803603602081101561060457600080fd5b81019080803573ffffffffffffffffffffffffffffffffffffffff169060200190929190505050611a27565b6040518082815260200191505060405180910390f35b34801561065257600080fd5b5061065b611ba2565b604051808273ffffffffffffffffffffffffffffffffffffffff1673ffffffffffffffffffffffffffffffffffffffff16815260200191505060405180910390f35b3480156106a957600080fd5b506106b2611bc8565b604051808273ffffffffffffffffffffffffffffffffffffffff1673ffffffffffffffffffffffffffffffffffffffff16815260200191505060405180910390f35b34801561070057600080fd5b50610709611bee565b6040518082815260200191505060405180910390f35b34801561072b57600080fd5b50610734611bf3565b6040518082815260200191505060405180910390f35b34801561075657600080fd5b506107836004803603602081101561076d57600080fd5b8101908080359060200190929190505050611bf9565b005b34801561079157600080fd5b5061079a611d07565b6040518082815260200191505060405180910390f35b3480156107bc57600080fd5b506107ff600480360360208110156107d357600080fd5b81019080803573ffffffffffffffffffffffffffffffffffffffff169060200190929190505050611d13565b6040518082815260200191505060405180910390f35b34801561082157600080fd5b5061086e6004803603604081101561083857600080fd5b8101908080359060200190929190803573ffffffffffffffffffffffffffffffffffffffff169060200190929190505050611d2b565b005b34801561087c57600080fd5b50610885612009565b6040518082815260200191505060405180910390f35b3480156108a757600080fd5b506108b0612015565b604051808273ffffffffffffffffffffffffffffffffffffffff1673ffffffffffffffffffffffffffffffffffffffff16815260200191505060405180910390f35b3480156108fe57600080fd5b5061090761203b565b60405180826fffffffffffffffffffffffffffffffff166fffffffffffffffffffffffffffffffff16815260200191505060405180910390f35b34801561094d57600080fd5b5061095661205d565b604051808273ffffffffffffffffffffffffffffffffffffffff1673ffffffffffffffffffffffffffffffffffffffff16815260200191505060405180910390f35b3480156109a457600080fd5b506109ad612083565b6040518082815260200191505060405180910390f35b3480156109cf57600080fd5b506109d861208f565b6040518082815260200191505060405180910390f35b3480156109fa57600080fd5b50610a036121f7565b604051808273ffffffffffffffffffffffffffffffffffffffff1673ffffffffffffffffffffffffffffffffffffffff16815260200191505060405180910390f35b348015610a5157600080fd5b50610a5a61221c565b005b348015610a6857600080fd5b50610ac360048036036040811015610a7f57600080fd5b8101908080356fffffffffffffffffffffffffffffffff16906020019092919080356fffffffffffffffffffffffffffffffff169060200190929190505050612336565b6040518082815260200191505060405180910390f35b348015610ae557600080fd5b50610b2860048036036020811015610afc57600080fd5b81019080803573ffffffffffffffffffffffffffffffffffffffff16906020019092919050505061235b565b60405180868152602001858152602001848152602001836fffffffffffffffffffffffffffffffff166fffffffffffffffffffffffffffffffff168152602001826fffffffffffffffffffffffffffffffff166fffffffffffffffffffffffffffffffff1681526020019550505050505060405180910390f35b348015610bae57600080fd5b50610bb76123c9565b6040518082815260200191505060405180910390f35b348015610bd957600080fd5b50610be2612531565b6040518082815260200191505060405180910390f35b348015610c0457600080fd5b50610c0d612537565b604051808273ffffffffffffffffffffffffffffffffffffffff1673ffffffffffffffffffffffffffffffffffffffff16815260200191505060405180910390f35b348015610c5b57600080fd5b50610c64612561565b604051808215151515815260200191505060405180910390f35b348015610c8a57600080fd5b50610c936125b9565b604051808273ffffffffffffffffffffffffffffffffffffffff1673ffffffffffffffffffffffffffffffffffffffff16815260200191505060405180910390f35b348015610ce157600080fd5b50610cea6125df565b6040518082815260200191505060405180910390f35b348015610d0c57600080fd5b50610d156125e9565b6040518082815260200191505060405180910390f35b348015610d3757600080fd5b50610d406125f5565b6040518080602001828103825283818151815260200191508051906020019080838360005b83811015610d80578082015181840152602081019050610d65565b50505050905090810190601f168015610dad5780820380516001836020036101000a031916815260200191505b509250505060405180910390f35b348015610dc757600080fd5b50610dd061262e565b60405180826fffffffffffffffffffffffffffffffff166fffffffffffffffffffffffffffffffff16815260200191505060405180910390f35b348015610e1657600080fd5b50610e5960048036036020811015610e2d57600080fd5b81019080803573ffffffffffffffffffffffffffffffffffffffff169060200190929190505050612650565b60405180838152602001821515151581526020019250505060405180910390f35b348015610e8657600080fd5b50610e8f612681565b604051808273ffffffffffffffffffffffffffffffffffffffff1673ffffffffffffffffffffffffffffffffffffffff16815260200191505060405180910390f35b348015610edd57600080fd5b50610ee66126a7565b604051808273ffffffffffffffffffffffffffffffffffffffff1673ffffffffffffffffffffffffffffffffffffffff16815260200191505060405180910390f35b348015610f3457600080fd5b50610f3d6126cd565b6040518082815260200191505060405180910390f35b348015610f5f57600080fd5b50610f686126d5565b6040518082815260200191505060405180910390f35b348015610f8a57600080fd5b50610fcd60048036036020811015610fa157600080fd5b81019080803573ffffffffffffffffffffffffffffffffffffffff1690602001909291905050506126db565b6040518082815260200191505060405180910390f35b348015610fef57600080fd5b50610ff86128e7565b6040518082815260200191505060405180910390f35b34801561101a57600080fd5b5061105d6004803603602081101561103157600080fd5b81019080803573ffffffffffffffffffffffffffffffffffffffff1690602001909291905050506128ed565b6040518082815260200191505060405180910390f35b34801561107f57600080fd5b50611182600480360360e081101561109657600080fd5b81019080803573ffffffffffffffffffffffffffffffffffffffff169060200190929190803573ffffffffffffffffffffffffffffffffffffffff169060200190929190803573ffffffffffffffffffffffffffffffffffffffff169060200190929190803573ffffffffffffffffffffffffffffffffffffffff169060200190929190803573ffffffffffffffffffffffffffffffffffffffff169060200190929190803573ffffffffffffffffffffffffffffffffffffffff169060200190929190803573ffffffffffffffffffffffffffffffffffffffff169060200190929190505050612a65565b005b34801561119057600080fd5b506111d3600480360360208110156111a757600080fd5b81019080803573ffffffffffffffffffffffffffffffffffffffff169060200190929190505050612fd7565b005b3480156111e157600080fd5b50611224600480360360208110156111f857600080fd5b81019080803573ffffffffffffffffffffffffffffffffffffffff169060200190929190505050613197565b6040518082815260200191505060405180910390f35b34801561124657600080fd5b5061124f613430565b6040518082815260200191505060405180910390f35b34801561127157600080fd5b506112b46004803603602081101561128857600080fd5b81019080803573ffffffffffffffffffffffffffffffffffffffff16906020019092919050505061344a565b604051808381526020018273ffffffffffffffffffffffffffffffffffffffff1673ffffffffffffffffffffffffffffffffffffffff1681526020019250505060405180910390f35b34801561130957600080fd5b5061136c6004803603604081101561132057600080fd5b81019080803573ffffffffffffffffffffffffffffffffffffffff169060200190929190803573ffffffffffffffffffffffffffffffffffffffff16906020019092919050505061348e565b005b6000809054906101000a900473ffffffffffffffffffffffffffffffffffffffff1673ffffffffffffffffffffffffffffffffffffffff163373ffffffffffffffffffffffffffffffffffffffff1614611413576040517f08c379a0000000000000000000000000000000000000000000000000000000008152600401808060200182810382526027815260200180616b236027913960400191505060405180910390fd5b565b600080828401905083811015611493576040517f08c379a000000000000000000000000000000000000000000000000000000000815260040180806020018281038252601b8152602001807f536166654d6174683a206164646974696f6e206f766572666c6f77000000000081525060200191505060405180910390fd5b8091505092915050565b6000600954905090565b600f6020528060005260406000206000915090508060000154908060010154908060020154908060030160009054906101000a90046fffffffffffffffffffffffffffffffff16908060030160109054906101000a90046fffffffffffffffffffffffffffffffff16905085565b68056bc75e2d6310000081565b600080600b60008473ffffffffffffffffffffffffffffffffffffffff1673ffffffffffffffffffffffffffffffffffffffff168152602001908152602001600020600001549050600081141561157d576000915050611698565b611585616a1d565b600c60008573ffffffffffffffffffffffffffffffffffffffff1673ffffffffffffffffffffffffffffffffffffffff1681526020019081526020016000206040518060a00160405290816000820154815260200160018201548152602001600282015481526020016003820160009054906101000a90046fffffffffffffffffffffffffffffffff166fffffffffffffffffffffffffffffffff166fffffffffffffffffffffffffffffffff1681526020016003820160109054906101000a90046fffffffffffffffffffffffffffffffff166fffffffffffffffffffffffffffffffff166fffffffffffffffffffffffffffffffff16815250509050600061168f83836138fc565b90508093505050505b919050565b6012602052816000526040600020602052806000526040600020600091509150505481565b600081146116d3576116d2613a9f565b5b6000600b60003373ffffffffffffffffffffffffffffffffffffffff1673ffffffffffffffffffffffffffffffffffffffff16815260200190815260200160002060000154905061172381613d3b565b6000600860009054906101000a900473ffffffffffffffffffffffffffffffffffffffff16905061175381613d97565b600061175e33611a27565b9050600061176b33611522565b905060006117798683613e66565b905060006117908387613e7f90919063ffffffff16565b90506000600b60003373ffffffffffffffffffffffffffffffffffffffff1673ffffffffffffffffffffffffffffffffffffffff16815260200190815260200160002060010160009054906101000a900473ffffffffffffffffffffffffffffffffffffffff169050611804863383613ec9565b600061180f826128ed565b905060006118268583613e7f90919063ffffffff16565b90506118328382614169565b8273ffffffffffffffffffffffffffffffffffffffff167f99920012339b5a3368d3a04b8606ce412c46ed92b7dcd8602d41fc8862cb8f258233604051808381526020018273ffffffffffffffffffffffffffffffffffffffff1673ffffffffffffffffffffffffffffffffffffffff1681526020019250505060405180910390a26118be338661454f565b60006118d38688613e7f90919063ffffffff16565b90506118df3382614660565b3373ffffffffffffffffffffffffffffffffffffffff167fbce78369dccab09eec1986f4d409ab09ffbb47d65423e5148fcf98411c5111c9826040518082815260200191505060405180910390a23373ffffffffffffffffffffffffffffffffffffffff167f51457222ebca92c335c9c86e2baa1cc0e40ffaa9084a51452980d5ba8dec2f638987604051808381526020018281526020019250505060405180910390a261198c88614b78565b5050505050505050505050565b670de0b6b3a764000081565b6119ad614d0d565b6000600a54905060008114806119c35750600083145b156119ce5750611a23565b6119f9600860009054906101000a900473ffffffffffffffffffffffffffffffffffffffff16613d97565b600080611a07848685614db5565b91509150611a158282614eec565b611a1f848661548c565b5050505b5050565b600080600b60008473ffffffffffffffffffffffffffffffffffffffff1673ffffffffffffffffffffffffffffffffffffffff1681526020019081526020016000206000015490506000811415611a82576000915050611b9d565b611a8a616a1d565b600c60008573ffffffffffffffffffffffffffffffffffffffff1673ffffffffffffffffffffffffffffffffffffffff1681526020019081526020016000206040518060a00160405290816000820154815260200160018201548152602001600282015481526020016003820160009054906101000a90046fffffffffffffffffffffffffffffffff166fffffffffffffffffffffffffffffffff166fffffffffffffffffffffffffffffffff1681526020016003820160109054906101000a90046fffffffffffffffffffffffffffffffff166fffffffffffffffffffffffffffffffff166fffffffffffffffffffffffffffffffff168152505090506000611b94838361568b565b90508093505050505b919050565b600160009054906101000a900473ffffffffffffffffffffffffffffffffffffffff1681565b600560009054906101000a900473ffffffffffffffffffffffffffffffffffffffff1681565b60c881565b60165481565b611c0233615844565b611c0b336158ed565b611c1481615991565b80600d60003373ffffffffffffffffffffffffffffffffffffffff1673ffffffffffffffffffffffffffffffffffffffff168152602001908152602001600020600001819055506001600d60003373ffffffffffffffffffffffffffffffffffffffff1673ffffffffffffffffffffffffffffffffffffffff16815260200190815260200160002060010160006101000a81548160ff0219169083151502179055503373ffffffffffffffffffffffffffffffffffffffff167f19bc932fb9e16a8b5a1e41be9f4c2de59d5ddd7567b8b81405f532ca00a9880e826040518082815260200191505060405180910390a250565b6714d1120d7b16000081565b600e6020528060005260406000206000915090505481565b611d34816159f5565b611d3d33615844565b611d4682615ad4565b6000600b60003373ffffffffffffffffffffffffffffffffffffffff1673ffffffffffffffffffffffffffffffffffffffff1681526020019081526020016000206000015490506000600860009054906101000a900473ffffffffffffffffffffffffffffffffffffffff169050611dbd81613d97565b6000821415611dd157611dd03384615b30565b5b6000611ddc33611a27565b90506000611de933611522565b90506000611e008286613e7f90919063ffffffff16565b90506000600b60003373ffffffffffffffffffffffffffffffffffffffff1673ffffffffffffffffffffffffffffffffffffffff16815260200190815260200160002060010160009054906101000a900473ffffffffffffffffffffffffffffffffffffffff169050611e74853383613ec9565b6000611e7f826128ed565b90506000611e968a8361141590919063ffffffff16565b9050611ea28382614169565b8273ffffffffffffffffffffffffffffffffffffffff167f99920012339b5a3368d3a04b8606ce412c46ed92b7dcd8602d41fc8862cb8f258233604051808381526020018273ffffffffffffffffffffffffffffffffffffffff1673ffffffffffffffffffffffffffffffffffffffff1681526020019250505060405180910390a2611f2e338b615c0f565b6000611f438b8761141590919063ffffffff16565b9050611f4f3382614660565b3373ffffffffffffffffffffffffffffffffffffffff167fbce78369dccab09eec1986f4d409ab09ffbb47d65423e5148fcf98411c5111c9826040518082815260200191505060405180910390a23373ffffffffffffffffffffffffffffffffffffffff167f51457222ebca92c335c9c86e2baa1cc0e40ffaa9084a51452980d5ba8dec2f638887604051808381526020018281526020019250505060405180910390a2611ffc87614b78565b5050505050505050505050565b670de0b6b3a764000081565b600260009054906101000a900473ffffffffffffffffffffffffffffffffffffffff1681565b601160109054906101000a90046fffffffffffffffffffffffffffffffff1681565b600460009054906101000a900473ffffffffffffffffffffffffffffffffffffffff1681565b67120a871cc002000081565b6000806000809054906101000a900473ffffffffffffffffffffffffffffffffffffffff1673ffffffffffffffffffffffffffffffffffffffff16635eb52fca6040518163ffffffff1660e01b815260040160206040518083038186803b1580156120f957600080fd5b505afa15801561210d573d6000803e3d6000fd5b505050506040513d602081101561212357600080fd5b810190808051906020019092919050505090506000600160009054906101000a900473ffffffffffffffffffffffffffffffffffffffff1673ffffffffffffffffffffffffffffffffffffffff16635eb52fca6040518163ffffffff1660e01b815260040160206040518083038186803b1580156121a057600080fd5b505afa1580156121b4573d6000803e3d6000fd5b505050506040513d60208110156121ca57600080fd5b810190808051906020019092919050505090506121f0818361141590919063ffffffff16565b9250505090565b6000809054906101000a900473ffffffffffffffffffffffffffffffffffffffff1681565b600360159054906101000a900460ff168061223b575061223a615d60565b5b806122535750600360149054906101000a900460ff16155b6122a8576040517f08c379a000000000000000000000000000000000000000000000000000000000815260040180806020018281038252602e815260200180616b7b602e913960400191505060405180910390fd5b6000600360159054906101000a900460ff1615905080156122fa576001600360156101000a81548160ff0219169083151502179055506001600360146101000a81548160ff0219169083151502179055505b612302615d71565b670de0b6b3a76400006010819055508015612333576000600360156101000a81548160ff0219169083151502179055505b50565b6013602052816000526040600020602052806000526040600020600091509150505481565b600c6020528060005260406000206000915090508060000154908060010154908060020154908060030160009054906101000a90046fffffffffffffffffffffffffffffffff16908060030160109054906101000a90046fffffffffffffffffffffffffffffffff16905085565b6000806000809054906101000a900473ffffffffffffffffffffffffffffffffffffffff1673ffffffffffffffffffffffffffffffffffffffff166314f6c3be6040518163ffffffff1660e01b815260040160206040518083038186803b15801561243357600080fd5b505afa158015612447573d6000803e3d6000fd5b505050506040513d602081101561245d57600080fd5b810190808051906020019092919050505090506000600160009054906101000a900473ffffffffffffffffffffffffffffffffffffffff1673ffffffffffffffffffffffffffffffffffffffff166314f6c3be6040518163ffffffff1660e01b815260040160206040518083038186803b1580156124da57600080fd5b505afa1580156124ee573d6000803e3d6000fd5b505050506040513d602081101561250457600080fd5b8101908080519060200190929190505050905061252a818361141590919063ffffffff16565b9250505090565b60105481565b6000600360009054906101000a900473ffffffffffffffffffffffffffffffffffffffff16905090565b6000600360009054906101000a900473ffffffffffffffffffffffffffffffffffffffff1673ffffffffffffffffffffffffffffffffffffffff163373ffffffffffffffffffffffffffffffffffffffff1614905090565b600860009054906101000a900473ffffffffffffffffffffffffffffffffffffffff1681565b6000600a54905090565b670de0b6b3a764000081565b6040518060400160405280600d81526020017f53746162696c697479506f6f6c0000000000000000000000000000000000000081525081565b601160009054906101000a90046fffffffffffffffffffffffffffffffff1681565b600d6020528060005260406000206000915090508060000154908060010160009054906101000a900460ff16905082565b600760009054906101000a900473ffffffffffffffffffffffffffffffffffffffff1681565b600660009054906101000a900473ffffffffffffffffffffffffffffffffffffffff1681565b633b9aca0081565b60145481565b600080600e60008473ffffffffffffffffffffffffffffffffffffffff1673ffffffffffffffffffffffffffffffffffffffff16815260200190815260200160002054905060008114156127335760009150506128e2565b6000600d60008573ffffffffffffffffffffffffffffffffffffffff1673ffffffffffffffffffffffffffffffffffffffff168152602001908152602001600020600001549050600061279782670de0b6b3a7640000613e7f90919063ffffffff16565b90506127a1616a1d565b600f60008773ffffffffffffffffffffffffffffffffffffffff1673ffffffffffffffffffffffffffffffffffffffff1681526020019081526020016000206040518060a00160405290816000820154815260200160018201548152602001600282015481526020016003820160009054906101000a90046fffffffffffffffffffffffffffffffff166fffffffffffffffffffffffffffffffff166fffffffffffffffffffffffffffffffff1681526020016003820160109054906101000a90046fffffffffffffffffffffffffffffffff166fffffffffffffffffffffffffffffffff166fffffffffffffffffffffffffffffffff1681525050905060006128d7670de0b6b3a76400006128c96128ba8886615e15565b86615fce90919063ffffffff16565b61605490919063ffffffff16565b905080955050505050505b919050565b60155481565b600080600e60008473ffffffffffffffffffffffffffffffffffffffff1673ffffffffffffffffffffffffffffffffffffffff1681526020019081526020016000205490506000811415612945576000915050612a60565b61294d616a1d565b600f60008573ffffffffffffffffffffffffffffffffffffffff1673ffffffffffffffffffffffffffffffffffffffff1681526020019081526020016000206040518060a00160405290816000820154815260200160018201548152602001600282015481526020016003820160009054906101000a90046fffffffffffffffffffffffffffffffff166fffffffffffffffffffffffffffffffff166fffffffffffffffffffffffffffffffff1681526020016003820160109054906101000a90046fffffffffffffffffffffffffffffffff166fffffffffffffffffffffffffffffffff166fffffffffffffffffffffffffffffffff168152505090506000612a5783836138fc565b90508093505050505b919050565b612a6d612561565b612adf576040517f08c379a00000000000000000000000000000000000000000000000000000000081526004018080602001828103825260208152602001807f4f776e61626c653a2063616c6c6572206973206e6f7420746865206f776e657281525060200191505060405180910390fd5b612ae88761609e565b612af18661609e565b612afa8561609e565b612b038461609e565b612b0c8361609e565b612b158261609e565b600073ffffffffffffffffffffffffffffffffffffffff168173ffffffffffffffffffffffffffffffffffffffff1614612b5357612b528161609e565b5b86600460006101000a81548173ffffffffffffffffffffffffffffffffffffffff021916908373ffffffffffffffffffffffffffffffffffffffff16021790555085600560006101000a81548173ffffffffffffffffffffffffffffffffffffffff021916908373ffffffffffffffffffffffffffffffffffffffff160217905550846000806101000a81548173ffffffffffffffffffffffffffffffffffffffff021916908373ffffffffffffffffffffffffffffffffffffffff16021790555083600660006101000a81548173ffffffffffffffffffffffffffffffffffffffff021916908373ffffffffffffffffffffffffffffffffffffffff16021790555082600760006101000a81548173ffffffffffffffffffffffffffffffffffffffff021916908373ffffffffffffffffffffffffffffffffffffffff16021790555081600260006101000a81548173ffffffffffffffffffffffffffffffffffffffff021916908373ffffffffffffffffffffffffffffffffffffffff16021790555080600860006101000a81548173ffffffffffffffffffffffffffffffffffffffff021916908373ffffffffffffffffffffffffffffffffffffffff1602179055507f3ca631ffcd2a9b5d9ae18543fc82f58eb4ca33af9e6ab01b7a8e95331e6ed98587604051808273ffffffffffffffffffffffffffffffffffffffff1673ffffffffffffffffffffffffffffffffffffffff16815260200191505060405180910390a17f143219c9e69b09e07e095fcc889b43d8f46ca892bba65f08dc3a0050869a567886604051808273ffffffffffffffffffffffffffffffffffffffff1673ffffffffffffffffffffffffffffffffffffffff16815260200191505060405180910390a17f78f058b189175430c48dc02699e3a0031ea4ff781536dc2fab847de4babdd88285604051808273ffffffffffffffffffffffffffffffffffffffff1673ffffffffffffffffffffffffffffffffffffffff16815260200191505060405180910390a17f227eec0ec317af6ab1a9587ffa1c84332522eb4c583a908f89babc05f8f339bd84604051808273ffffffffffffffffffffffffffffffffffffffff1673ffffffffffffffffffffffffffffffffffffffff16815260200191505060405180910390a17f65f4cf077bc01e4742eb5ad98326f6e95b63548ea24b17f8d5e823111fe7880083604051808273ffffffffffffffffffffffffffffffffffffffff1673ffffffffffffffffffffffffffffffffffffffff16815260200191505060405180910390a17f8c537274438aa850a330284665d81a85dd38267d09e4050d416bfc94142db26482604051808273ffffffffffffffffffffffffffffffffffffffff1673ffffffffffffffffffffffffffffffffffffffff16815260200191505060405180910390a17f3055265812fb8447b9ada4a5d804ec43bd528ec40e89c952bbc7b85dc5ac681181604051808273ffffffffffffffffffffffffffffffffffffffff1673ffffffffffffffffffffffffffffffffffffffff16815260200191505060405180910390a150505050505050565b612fdf612561565b613051576040517f08c379a00000000000000000000000000000000000000000000000000000000081526004018080602001828103825260208152602001807f4f776e61626c653a2063616c6c6572206973206e6f7420746865206f776e657281525060200191505060405180910390fd5b600073ffffffffffffffffffffffffffffffffffffffff168173ffffffffffffffffffffffffffffffffffffffff1614156130d7576040517f08c379a0000000000000000000000000000000000000000000000000000000008152600401808060200182810382526026815260200180616ab76026913960400191505060405180910390fd5b8073ffffffffffffffffffffffffffffffffffffffff16600360009054906101000a900473ffffffffffffffffffffffffffffffffffffffff1673ffffffffffffffffffffffffffffffffffffffff167f8be0079c531659141344cd1fd0a4f28419497f9722a3daafe3b4186f6b6457e060405160405180910390a380600360006101000a81548173ffffffffffffffffffffffffffffffffffffffff021916908373ffffffffffffffffffffffffffffffffffffffff16021790555050565b600080600b60008473ffffffffffffffffffffffffffffffffffffffff1673ffffffffffffffffffffffffffffffffffffffff16815260200190815260200160002060000154905060008114156131f257600091505061342b565b6000600b60008573ffffffffffffffffffffffffffffffffffffffff1673ffffffffffffffffffffffffffffffffffffffff16815260200190815260200160002060010160009054906101000a900473ffffffffffffffffffffffffffffffffffffffff16905060008073ffffffffffffffffffffffffffffffffffffffff168273ffffffffffffffffffffffffffffffffffffffff16146132d657600d60008373ffffffffffffffffffffffffffffffffffffffff1673ffffffffffffffffffffffffffffffffffffffff168152602001908152602001600020600001546132e0565b670de0b6b3a76400005b90506132ea616a1d565b600c60008773ffffffffffffffffffffffffffffffffffffffff1673ffffffffffffffffffffffffffffffffffffffff1681526020019081526020016000206040518060a00160405290816000820154815260200160018201548152602001600282015481526020016003820160009054906101000a90046fffffffffffffffffffffffffffffffff166fffffffffffffffffffffffffffffffff166fffffffffffffffffffffffffffffffff1681526020016003820160109054906101000a90046fffffffffffffffffffffffffffffffff166fffffffffffffffffffffffffffffffff166fffffffffffffffffffffffffffffffff168152505090506000613420670de0b6b3a76400006134126134038886615e15565b86615fce90919063ffffffff16565b61605490919063ffffffff16565b905080955050505050505b919050565b60056103e8670de0b6b3a76400008161344557fe5b040281565b600b6020528060005260406000206000915090508060000154908060010160009054906101000a900473ffffffffffffffffffffffffffffffffffffffff16905082565b6000600b60003373ffffffffffffffffffffffffffffffffffffffff1673ffffffffffffffffffffffffffffffffffffffff1681526020019081526020016000206000015490506134de81613d3b565b6134e7336161c1565b6134f0336162f6565b6000600860009054906101000a900473ffffffffffffffffffffffffffffffffffffffff16905061352081613d97565b600061352b33611a27565b9050600061353833611522565b9050600061354f8286613e7f90919063ffffffff16565b90506000600b60003373ffffffffffffffffffffffffffffffffffffffff1673ffffffffffffffffffffffffffffffffffffffff16815260200190815260200160002060010160009054906101000a900473ffffffffffffffffffffffffffffffffffffffff1690506135c3853383613ec9565b60006135ce826128ed565b905060008190506135df8382614169565b8273ffffffffffffffffffffffffffffffffffffffff167f99920012339b5a3368d3a04b8606ce412c46ed92b7dcd8602d41fc8862cb8f258233604051808381526020018273ffffffffffffffffffffffffffffffffffffffff1673ffffffffffffffffffffffffffffffffffffffff1681526020019250505060405180910390a261366b3386614660565b3373ffffffffffffffffffffffffffffffffffffffff167f51457222ebca92c335c9c86e2baa1cc0e40ffaa9084a51452980d5ba8dec2f638786604051808381526020018281526020019250505060405180910390a23373ffffffffffffffffffffffffffffffffffffffff167fbce78369dccab09eec1986f4d409ab09ffbb47d65423e5148fcf98411c5111c9866040518082815260200191505060405180910390a261372486600954613e7f90919063ffffffff16565b6009819055507fceb6d671277d4354fd29977ada70695fbd93a16612abf765d6b0e25c28dc6db36009546040518082815260200191505060405180910390a17f6109e2559dfa766aaec7118351d48a523f0a4157f49c8d68749c8ac41318ad123387604051808373ffffffffffffffffffffffffffffffffffffffff1673ffffffffffffffffffffffffffffffffffffffff1681526020018281526020019250505060405180910390a1600460009054906101000a900473ffffffffffffffffffffffffffffffffffffffff1673ffffffffffffffffffffffffffffffffffffffff1663ea9638bf87338d8d6040518563ffffffff1660e01b8152600401808473ffffffffffffffffffffffffffffffffffffffff1673ffffffffffffffffffffffffffffffffffffffff1681526020018373ffffffffffffffffffffffffffffffffffffffff1673ffffffffffffffffffffffffffffffffffffffff1681526020018273ffffffffffffffffffffffffffffffffffffffff1673ffffffffffffffffffffffffffffffffffffffff16815260200193505050506000604051808303818588803b1580156138d757600080fd5b505af11580156138eb573d6000803e3d6000fd5b505050505050505050505050505050565b60008082602001519050600083606001519050600084608001519050601160109054906101000a90046fffffffffffffffffffffffffffffffff166fffffffffffffffffffffffffffffffff16816fffffffffffffffffffffffffffffffff16101561396e5760009350505050613a99565b6000806139b484601160009054906101000a90046fffffffffffffffffffffffffffffffff166fffffffffffffffffffffffffffffffff1661636090919063ffffffff16565b90506000816fffffffffffffffffffffffffffffffff1614156139ff576139f8856139ea6010548b615fce90919063ffffffff16565b61605490919063ffffffff16565b9150613a64565b6001816fffffffffffffffffffffffffffffffff161415613a5e57613a57633b9aca00613a4987613a3b6010548d615fce90919063ffffffff16565b61605490919063ffffffff16565b61605490919063ffffffff16565b9150613a63565b600091505b5b613a7b633b9aca008961605490919063ffffffff16565b821015613a9057600095505050505050613a99565b81955050505050505b92915050565b6000600260009054906101000a900473ffffffffffffffffffffffffffffffffffffffff1673ffffffffffffffffffffffffffffffffffffffff16630fdb11cf6040518163ffffffff1660e01b8152600401602060405180830381600087803b158015613b0b57600080fd5b505af1158015613b1f573d6000803e3d6000fd5b505050506040513d6020811015613b3557600080fd5b810190808051906020019092919050505090506000600760009054906101000a900473ffffffffffffffffffffffffffffffffffffffff1673ffffffffffffffffffffffffffffffffffffffff16634d6228316040518163ffffffff1660e01b815260040160206040518083038186803b158015613bb257600080fd5b505afa158015613bc6573d6000803e3d6000fd5b505050506040513d6020811015613bdc57600080fd5b810190808051906020019092919050505090506000600560009054906101000a900473ffffffffffffffffffffffffffffffffffffffff1673ffffffffffffffffffffffffffffffffffffffff1663d293c71083856040518363ffffffff1660e01b8152600401808373ffffffffffffffffffffffffffffffffffffffff1673ffffffffffffffffffffffffffffffffffffffff1681526020018281526020019250505060206040518083038186803b158015613c9857600080fd5b505afa158015613cac573d6000803e3d6000fd5b505050506040513d6020811015613cc257600080fd5b8101908080519060200190929190505050905067120a871cc0020000811015613d36576040517f08c379a0000000000000000000000000000000000000000000000000000000008152600401808060200182810382526044815260200180616d4b6044913960600191505060405180910390fd5b505050565b60008111613d94576040517f08c379a0000000000000000000000000000000000000000000000000000000008152600401808060200182810382526030815260200180616cce6030913960400191505060405180910390fd5b50565b600073ffffffffffffffffffffffffffffffffffffffff168173ffffffffffffffffffffffffffffffffffffffff161415613dd157613e63565b60008173ffffffffffffffffffffffffffffffffffffffff166346ad34d96040518163ffffffff1660e01b8152600401602060405180830381600087803b158015613e1b57600080fd5b505af1158015613e2f573d6000803e3d6000fd5b505050506040513d6020811015613e4557600080fd5b81019080805190602001909291905050509050613e61816163f0565b505b50565b6000818310613e755781613e77565b825b905092915050565b6000613ec183836040518060400160405280601e81526020017f536166654d6174683a207375627472616374696f6e206f766572666c6f770000815250616719565b905092915050565b600073ffffffffffffffffffffffffffffffffffffffff168173ffffffffffffffffffffffffffffffffffffffff1614158015613f335750600073ffffffffffffffffffffffffffffffffffffffff168373ffffffffffffffffffffffffffffffffffffffff1614155b15614034576000613f43826126db565b90508373ffffffffffffffffffffffffffffffffffffffff1663614d2ab683836040518363ffffffff1660e01b8152600401808373ffffffffffffffffffffffffffffffffffffffff1673ffffffffffffffffffffffffffffffffffffffff16815260200182815260200192505050600060405180830381600087803b158015613fcc57600080fd5b505af1158015613fe0573d6000803e3d6000fd5b505050508173ffffffffffffffffffffffffffffffffffffffff167fcd2cdc1a4af71051394e9c6facd9a266b2ac5bd65d219a701eeda009f47682bf826040518082815260200191505060405180910390a2505b600073ffffffffffffffffffffffffffffffffffffffff168373ffffffffffffffffffffffffffffffffffffffff161461416457600061407383613197565b90508373ffffffffffffffffffffffffffffffffffffffff1663614d2ab684836040518363ffffffff1660e01b8152600401808373ffffffffffffffffffffffffffffffffffffffff1673ffffffffffffffffffffffffffffffffffffffff16815260200182815260200192505050600060405180830381600087803b1580156140fc57600080fd5b505af1158015614110573d6000803e3d6000fd5b505050508273ffffffffffffffffffffffffffffffffffffffff167f2608b986a6ac0f6c629ca37018e80af5561e366252ae93602a96d3ab2e73e42d826040518082815260200191505060405180910390a2505b505050565b80600e60008473ffffffffffffffffffffffffffffffffffffffff1673ffffffffffffffffffffffffffffffffffffffff1681526020019081526020016000208190555060008114156142b257600f60008373ffffffffffffffffffffffffffffffffffffffff1673ffffffffffffffffffffffffffffffffffffffff168152602001908152602001600020600080820160009055600182016000905560028201600090556003820160006101000a8154906fffffffffffffffffffffffffffffffff02191690556003820160106101000a8154906fffffffffffffffffffffffffffffffff021916905550508173ffffffffffffffffffffffffffffffffffffffff167fbb1322f85cc7cc8bac4e172a5bc5dcc0c1959007f9a030032abf9258205f0e45600080604051808381526020018281526020019250505060405180910390a261454b565b6000601160009054906101000a90046fffffffffffffffffffffffffffffffff1690506000601160109054906101000a90046fffffffffffffffffffffffffffffffff16905060006010549050600060136000846fffffffffffffffffffffffffffffffff166fffffffffffffffffffffffffffffffff1681526020019081526020016000206000856fffffffffffffffffffffffffffffffff166fffffffffffffffffffffffffffffffff16815260200190815260200160002054905081600f60008873ffffffffffffffffffffffffffffffffffffffff1673ffffffffffffffffffffffffffffffffffffffff1681526020019081526020016000206001018190555080600f60008873ffffffffffffffffffffffffffffffffffffffff1673ffffffffffffffffffffffffffffffffffffffff1681526020019081526020016000206002018190555083600f60008873ffffffffffffffffffffffffffffffffffffffff1673ffffffffffffffffffffffffffffffffffffffff16815260200190815260200160002060030160006101000a8154816fffffffffffffffffffffffffffffffff02191690836fffffffffffffffffffffffffffffffff16021790555082600f60008873ffffffffffffffffffffffffffffffffffffffff1673ffffffffffffffffffffffffffffffffffffffff16815260200190815260200160002060030160106101000a8154816fffffffffffffffffffffffffffffffff02191690836fffffffffffffffffffffffffffffffff1602179055508573ffffffffffffffffffffffffffffffffffffffff167fbb1322f85cc7cc8bac4e172a5bc5dcc0c1959007f9a030032abf9258205f0e458383604051808381526020018281526020019250505060405180910390a2505050505b5050565b600081141561455d5761465c565b600660009054906101000a900473ffffffffffffffffffffffffffffffffffffffff1673ffffffffffffffffffffffffffffffffffffffff166320c582be3084846040518463ffffffff1660e01b8152600401808473ffffffffffffffffffffffffffffffffffffffff1673ffffffffffffffffffffffffffffffffffffffff1681526020018373ffffffffffffffffffffffffffffffffffffffff1673ffffffffffffffffffffffffffffffffffffffff1681526020018281526020019350505050600060405180830381600087803b15801561463a57600080fd5b505af115801561464e573d6000803e3d6000fd5b5050505061465b816167d9565b5b5050565b80600b60008473ffffffffffffffffffffffffffffffffffffffff1673ffffffffffffffffffffffffffffffffffffffff16815260200190815260200160002060000181905550600081141561481a57600b60008373ffffffffffffffffffffffffffffffffffffffff1673ffffffffffffffffffffffffffffffffffffffff16815260200190815260200160002060010160006101000a81549073ffffffffffffffffffffffffffffffffffffffff0219169055600c60008373ffffffffffffffffffffffffffffffffffffffff1673ffffffffffffffffffffffffffffffffffffffff168152602001908152602001600020600080820160009055600182016000905560028201600090556003820160006101000a8154906fffffffffffffffffffffffffffffffff02191690556003820160106101000a8154906fffffffffffffffffffffffffffffffff021916905550508173ffffffffffffffffffffffffffffffffffffffff167f2d6cc0bcdf72c9486f6451bde6b80f44066f4558f77f44dbfedbe7d8b295225a600080600060405180848152602001838152602001828152602001935050505060405180910390a2614b74565b6000601160009054906101000a90046fffffffffffffffffffffffffffffffff1690506000601160109054906101000a90046fffffffffffffffffffffffffffffffff16905060006010549050600060126000846fffffffffffffffffffffffffffffffff166fffffffffffffffffffffffffffffffff1681526020019081526020016000206000856fffffffffffffffffffffffffffffffff166fffffffffffffffffffffffffffffffff168152602001908152602001600020549050600060136000856fffffffffffffffffffffffffffffffff166fffffffffffffffffffffffffffffffff1681526020019081526020016000206000866fffffffffffffffffffffffffffffffff166fffffffffffffffffffffffffffffffff16815260200190815260200160002054905082600c60008973ffffffffffffffffffffffffffffffffffffffff1673ffffffffffffffffffffffffffffffffffffffff1681526020019081526020016000206001018190555081600c60008973ffffffffffffffffffffffffffffffffffffffff1673ffffffffffffffffffffffffffffffffffffffff1681526020019081526020016000206000018190555080600c60008973ffffffffffffffffffffffffffffffffffffffff1673ffffffffffffffffffffffffffffffffffffffff1681526020019081526020016000206002018190555084600c60008973ffffffffffffffffffffffffffffffffffffffff1673ffffffffffffffffffffffffffffffffffffffff16815260200190815260200160002060030160006101000a8154816fffffffffffffffffffffffffffffffff02191690836fffffffffffffffffffffffffffffffff16021790555083600c60008973ffffffffffffffffffffffffffffffffffffffff1673ffffffffffffffffffffffffffffffffffffffff16815260200190815260200160002060030160106101000a8154816fffffffffffffffffffffffffffffffff02191690836fffffffffffffffffffffffffffffffff1602179055508673ffffffffffffffffffffffffffffffffffffffff167f2d6cc0bcdf72c9486f6451bde6b80f44066f4558f77f44dbfedbe7d8b295225a84848460405180848152602001838152602001828152602001935050505060405180910390a250505050505b5050565b6000811415614b8657614d0a565b6000614b9d82600954613e7f90919063ffffffff16565b9050806009819055507fceb6d671277d4354fd29977ada70695fbd93a16612abf765d6b0e25c28dc6db3816040518082815260200191505060405180910390a17f6109e2559dfa766aaec7118351d48a523f0a4157f49c8d68749c8ac41318ad123383604051808373ffffffffffffffffffffffffffffffffffffffff1673ffffffffffffffffffffffffffffffffffffffff1681526020018281526020019250505060405180910390a160003373ffffffffffffffffffffffffffffffffffffffff168360405180600001905060006040518083038185875af1925050503d8060008114614ca8576040519150601f19603f3d011682016040523d82523d6000602084013e614cad565b606091505b5050905080614d07576040517f08c379a0000000000000000000000000000000000000000000000000000000008152600401808060200182810382526021815260200180616bd26021913960400191505060405180910390fd5b50505b50565b600560009054906101000a900473ffffffffffffffffffffffffffffffffffffffff1673ffffffffffffffffffffffffffffffffffffffff163373ffffffffffffffffffffffffffffffffffffffff1614614db3576040517f08c379a0000000000000000000000000000000000000000000000000000000008152600401808060200182810382526029815260200180616ba96029913960400191505060405180910390fd5b565b6000806000614de9601554614ddb670de0b6b3a764000089615fce90919063ffffffff16565b61141590919063ffffffff16565b905083851115614df557fe5b83851415614e1557670de0b6b3a764000091506000601681905550614e9d565b6000614e46601654614e38670de0b6b3a764000089615fce90919063ffffffff16565b613e7f90919063ffffffff16565b9050614e6e6001614e60878461605490919063ffffffff16565b61141590919063ffffffff16565b9250614e9581614e878786615fce90919063ffffffff16565b613e7f90919063ffffffff16565b601681905550505b614eb0848261605490919063ffffffff16565b9250614ed7614ec88585615fce90919063ffffffff16565b82613e7f90919063ffffffff16565b60158190555082829250925050935093915050565b600060105490506000670de0b6b3a7640000831115614f0757fe5b6000614f2484670de0b6b3a7640000613e7f90919063ffffffff16565b90506000601160009054906101000a90046fffffffffffffffffffffffffffffffff1690506000601160109054906101000a90046fffffffffffffffffffffffffffffffff169050600060126000836fffffffffffffffffffffffffffffffff166fffffffffffffffffffffffffffffffff1681526020019081526020016000206000846fffffffffffffffffffffffffffffffff166fffffffffffffffffffffffffffffffff1681526020019081526020016000205490506000614ff2878a615fce90919063ffffffff16565b90506000615009828461141590919063ffffffff16565b90508060126000866fffffffffffffffffffffffffffffffff166fffffffffffffffffffffffffffffffff1681526020019081526020016000206000876fffffffffffffffffffffffffffffffff166fffffffffffffffffffffffffffffffff168152602001908152602001600020819055507fe12e2cd2c9afa8069203ca07e7eff1edce4a075686d0736a8e7e0d593597b20781858760405180848152602001836fffffffffffffffffffffffffffffffff166fffffffffffffffffffffffffffffffff168152602001826fffffffffffffffffffffffffffffffff166fffffffffffffffffffffffffffffffff168152602001935050505060405180910390a160008614156152ae5761513a6001856fffffffffffffffffffffffffffffffff1661683490919063ffffffff16565b601160106101000a8154816fffffffffffffffffffffffffffffffff02191690836fffffffffffffffffffffffffffffffff1602179055507fb50f0f59e7cb5b421dc77581c3a9919e3806e076e5fa78a874c3f120cb7d874d601160109054906101000a90046fffffffffffffffffffffffffffffffff1660405180826fffffffffffffffffffffffffffffffff166fffffffffffffffffffffffffffffffff16815260200191505060405180910390a16000601160006101000a8154816fffffffffffffffffffffffffffffffff02191690836fffffffffffffffffffffffffffffffff1602179055507f1f9dfc70cd666adb18a39d60a797518f7b4febf4b6e24ef37d44f6e1e7219fbe601160009054906101000a90046fffffffffffffffffffffffffffffffff1660405180826fffffffffffffffffffffffffffffffff166fffffffffffffffffffffffffffffffff16815260200191505060405180910390a1670de0b6b3a76400009650615438565b633b9aca006152e0670de0b6b3a76400006152d2898c615fce90919063ffffffff16565b61605490919063ffffffff16565b101561540757615329670de0b6b3a764000061531b633b9aca0061530d8a8d615fce90919063ffffffff16565b615fce90919063ffffffff16565b61605490919063ffffffff16565b96506153516001866fffffffffffffffffffffffffffffffff1661683490919063ffffffff16565b601160006101000a8154816fffffffffffffffffffffffffffffffff02191690836fffffffffffffffffffffffffffffffff1602179055507f1f9dfc70cd666adb18a39d60a797518f7b4febf4b6e24ef37d44f6e1e7219fbe601160009054906101000a90046fffffffffffffffffffffffffffffffff1660405180826fffffffffffffffffffffffffffffffff166fffffffffffffffffffffffffffffffff16815260200191505060405180910390a1615437565b615434670de0b6b3a7640000615426888b615fce90919063ffffffff16565b61605490919063ffffffff16565b96505b5b6000871161544257fe5b866010819055507fc1a9618cb59ebca77cbdbc2949f126823c407ff13edb285fd0262519a9c18e8c876040518082815260200191505060405180910390a150505050505050505050565b60008060009054906101000a900473ffffffffffffffffffffffffffffffffffffffff1690508073ffffffffffffffffffffffffffffffffffffffff166338d995a8836040518263ffffffff1660e01b815260040180828152602001915050600060405180830381600087803b15801561550557600080fd5b505af1158015615519573d6000803e3d6000fd5b50505050615526826167d9565b600660009054906101000a900473ffffffffffffffffffffffffffffffffffffffff1673ffffffffffffffffffffffffffffffffffffffff16639dc29fac30846040518363ffffffff1660e01b8152600401808373ffffffffffffffffffffffffffffffffffffffff1673ffffffffffffffffffffffffffffffffffffffff16815260200182815260200192505050600060405180830381600087803b1580156155cf57600080fd5b505af11580156155e3573d6000803e3d6000fd5b505050508073ffffffffffffffffffffffffffffffffffffffff166364a197f330856040518363ffffffff1660e01b8152600401808373ffffffffffffffffffffffffffffffffffffffff1673ffffffffffffffffffffffffffffffffffffffff16815260200182815260200192505050600060405180830381600087803b15801561566e57600080fd5b505af1158015615682573d6000803e3d6000fd5b50505050505050565b6000808260800151905060008360600151905060008460000151905060008560200151905060006157318360126000886fffffffffffffffffffffffffffffffff166fffffffffffffffffffffffffffffffff1681526020019081526020016000206000876fffffffffffffffffffffffffffffffff166fffffffffffffffffffffffffffffffff16815260200190815260200160002054613e7f90919063ffffffff16565b905060006157dd633b9aca0060126000896fffffffffffffffffffffffffffffffff166fffffffffffffffffffffffffffffffff168152602001908152602001600020600061579c60018a6fffffffffffffffffffffffffffffffff1661683490919063ffffffff16565b6fffffffffffffffffffffffffffffffff166fffffffffffffffffffffffffffffffff1681526020019081526020016000205461605490919063ffffffff16565b90506000615832670de0b6b3a764000061582486615816615807878961141590919063ffffffff16565b8f615fce90919063ffffffff16565b61605490919063ffffffff16565b61605490919063ffffffff16565b90508097505050505050505092915050565b600d60008273ffffffffffffffffffffffffffffffffffffffff1673ffffffffffffffffffffffffffffffffffffffff16815260200190815260200160002060010160009054906101000a900460ff16156158ea576040517f08c379a0000000000000000000000000000000000000000000000000000000008152600401808060200182810382526039815260200180616c6d6039913960400191505060405180910390fd5b50565b6000600b60008373ffffffffffffffffffffffffffffffffffffffff1673ffffffffffffffffffffffffffffffffffffffff1681526020019081526020016000206000015490506000811461598d576040517f08c379a0000000000000000000000000000000000000000000000000000000008152600401808060200182810382526028815260200180616ca66028913960400191505060405180910390fd5b5050565b670de0b6b3a76400008111156159f2576040517f08c379a0000000000000000000000000000000000000000000000000000000008152600401808060200182810382526033815260200180616c146033913960400191505060405180910390fd5b50565b600d60008273ffffffffffffffffffffffffffffffffffffffff1673ffffffffffffffffffffffffffffffffffffffff16815260200190815260200160002060010160009054906101000a900460ff1680615a7c5750600073ffffffffffffffffffffffffffffffffffffffff168173ffffffffffffffffffffffffffffffffffffffff16145b615ad1576040517f08c379a0000000000000000000000000000000000000000000000000000000008152600401808060200182810382526046815260200180616add6046913960600191505060405180910390fd5b50565b60008111615b2d576040517f08c379a0000000000000000000000000000000000000000000000000000000008152600401808060200182810382526026815260200180616c476026913960400191505060405180910390fd5b50565b80600b60008473ffffffffffffffffffffffffffffffffffffffff1673ffffffffffffffffffffffffffffffffffffffff16815260200190815260200160002060010160006101000a81548173ffffffffffffffffffffffffffffffffffffffff021916908373ffffffffffffffffffffffffffffffffffffffff1602179055508073ffffffffffffffffffffffffffffffffffffffff168273ffffffffffffffffffffffffffffffffffffffff167f094c08e96a8890877a8390b4f967180a7507ad8622244d05fcd0f9f8e086564e60405160405180910390a35050565b600660009054906101000a900473ffffffffffffffffffffffffffffffffffffffff1673ffffffffffffffffffffffffffffffffffffffff1663bb997bac8330846040518463ffffffff1660e01b8152600401808473ffffffffffffffffffffffffffffffffffffffff1673ffffffffffffffffffffffffffffffffffffffff1681526020018373ffffffffffffffffffffffffffffffffffffffff1673ffffffffffffffffffffffffffffffffffffffff1681526020018281526020019350505050600060405180830381600087803b158015615cec57600080fd5b505af1158015615d00573d6000803e3d6000fd5b505050506000615d1b82600a5461141590919063ffffffff16565b905080600a819055507fa8e886449d8f7e765877b4a4f54632da3943ae454d5a272bdccb1781f086ff29816040518082815260200191505060405180910390a1505050565b6000615d6b306168c3565b15905090565b600033905080600360006101000a81548173ffffffffffffffffffffffffffffffffffffffff021916908373ffffffffffffffffffffffffffffffffffffffff1602179055508073ffffffffffffffffffffffffffffffffffffffff16600073ffffffffffffffffffffffffffffffffffffffff167f8be0079c531659141344cd1fd0a4f28419497f9722a3daafe3b4186f6b6457e060405160405180910390a350565b600080826080015190506000836060015190506000846040015190506000856020015190506000615ebb8360136000886fffffffffffffffffffffffffffffffff166fffffffffffffffffffffffffffffffff1681526020019081526020016000206000876fffffffffffffffffffffffffffffffff166fffffffffffffffffffffffffffffffff16815260200190815260200160002054613e7f90919063ffffffff16565b90506000615f67633b9aca0060136000896fffffffffffffffffffffffffffffffff166fffffffffffffffffffffffffffffffff1681526020019081526020016000206000615f2660018a6fffffffffffffffffffffffffffffffff1661683490919063ffffffff16565b6fffffffffffffffffffffffffffffffff166fffffffffffffffffffffffffffffffff1681526020019081526020016000205461605490919063ffffffff16565b90506000615fbc670de0b6b3a7640000615fae86615fa0615f91878961141590919063ffffffff16565b8f615fce90919063ffffffff16565b61605490919063ffffffff16565b61605490919063ffffffff16565b90508097505050505050505092915050565b600080831415615fe1576000905061604e565b6000828402905082848281615ff257fe5b0414616049576040517f08c379a0000000000000000000000000000000000000000000000000000000008152600401808060200182810382526021815260200180616bf36021913960400191505060405180910390fd5b809150505b92915050565b600061609683836040518060400160405280601a81526020017f536166654d6174683a206469766973696f6e206279207a65726f0000000000008152506168d6565b905092915050565b600073ffffffffffffffffffffffffffffffffffffffff168173ffffffffffffffffffffffffffffffffffffffff161415616141576040517f08c379a000000000000000000000000000000000000000000000000000000000815260040180806020018281038252601e8152602001807f4163636f756e742063616e6e6f74206265207a65726f2061646472657373000081525060200191505060405180910390fd5b6000813b9050600081116161bd576040517f08c379a00000000000000000000000000000000000000000000000000000000081526004018080602001828103825260208152602001807f4163636f756e7420636f64652073697a652063616e6e6f74206265207a65726f81525060200191505060405180910390fd5b5050565b6001600560009054906101000a900473ffffffffffffffffffffffffffffffffffffffff1673ffffffffffffffffffffffffffffffffffffffff166321e37801836040518263ffffffff1660e01b8152600401808273ffffffffffffffffffffffffffffffffffffffff1673ffffffffffffffffffffffffffffffffffffffff16815260200191505060206040518083038186803b15801561626257600080fd5b505afa158015616276573d6000803e3d6000fd5b505050506040513d602081101561628c57600080fd5b8101908080519060200190929190505050146162f3576040517f08c379a0000000000000000000000000000000000000000000000000000000008152600401808060200182810382526046815260200180616a716046913960600191505060405180910390fd5b50565b600061630182611a27565b90506000811161635c576040517f08c379a0000000000000000000000000000000000000000000000000000000008152600401808060200182810382526031815260200180616b4a6031913960400191505060405180910390fd5b5050565b6000826fffffffffffffffffffffffffffffffff16826fffffffffffffffffffffffffffffffff1611156163df576040517f08c379a0000000000000000000000000000000000000000000000000000000008152600401808060200182810382526028815260200180616cfe6028913960400191505060405180910390fd5b600082840390508091505092915050565b6000600a54905060008114806164065750600082145b156164115750616716565b600061641d838361699c565b9050600061643660105483615fce90919063ffffffff16565b90506164f38160136000601160109054906101000a90046fffffffffffffffffffffffffffffffff166fffffffffffffffffffffffffffffffff166fffffffffffffffffffffffffffffffff1681526020019081526020016000206000601160009054906101000a90046fffffffffffffffffffffffffffffffff166fffffffffffffffffffffffffffffffff166fffffffffffffffffffffffffffffffff1681526020019081526020016000205461141590919063ffffffff16565b60136000601160109054906101000a90046fffffffffffffffffffffffffffffffff166fffffffffffffffffffffffffffffffff166fffffffffffffffffffffffffffffffff1681526020019081526020016000206000601160009054906101000a90046fffffffffffffffffffffffffffffffff166fffffffffffffffffffffffffffffffff166fffffffffffffffffffffffffffffffff168152602001908152602001600020819055507f2d6127771b164a9cc8827d24b5955db2a77e7a81dac389107ebb8bce9fb6496860136000601160109054906101000a90046fffffffffffffffffffffffffffffffff166fffffffffffffffffffffffffffffffff166fffffffffffffffffffffffffffffffff1681526020019081526020016000206000601160009054906101000a90046fffffffffffffffffffffffffffffffff166fffffffffffffffffffffffffffffffff166fffffffffffffffffffffffffffffffff16815260200190815260200160002054601160109054906101000a90046fffffffffffffffffffffffffffffffff16601160009054906101000a90046fffffffffffffffffffffffffffffffff1660405180848152602001836fffffffffffffffffffffffffffffffff166fffffffffffffffffffffffffffffffff168152602001826fffffffffffffffffffffffffffffffff166fffffffffffffffffffffffffffffffff168152602001935050505060405180910390a15050505b50565b60008383111582906167c6576040517f08c379a00000000000000000000000000000000000000000000000000000000081526004018080602001828103825283818151815260200191508051906020019080838360005b8381101561678b578082015181840152602081019050616770565b50505050905090810190601f1680156167b85780820380516001836020036101000a031916815260200191505b509250505060405180910390fd5b5060008385039050809150509392505050565b60006167f082600a54613e7f90919063ffffffff16565b905080600a819055507fa8e886449d8f7e765877b4a4f54632da3943ae454d5a272bdccb1781f086ff29816040518082815260200191505060405180910390a15050565b6000808284019050836fffffffffffffffffffffffffffffffff16816fffffffffffffffffffffffffffffffff1610156168b9576040517f08c379a0000000000000000000000000000000000000000000000000000000008152600401808060200182810382526025815260200180616d266025913960400191505060405180910390fd5b8091505092915050565b600080823b905060008111915050919050565b60008083118290616982576040517f08c379a00000000000000000000000000000000000000000000000000000000081526004018080602001828103825283818151815260200191508051906020019080838360005b8381101561694757808201518184015260208101905061692c565b50505050905090810190601f1680156169745780820380516001836020036101000a031916815260200191505b509250505060405180910390fd5b50600083858161698e57fe5b049050809150509392505050565b6000806169ce6014546169c0670de0b6b3a764000087615fce90919063ffffffff16565b61141590919063ffffffff16565b905060006169e5848361605490919063ffffffff16565b9050616a0c6169fd8583615fce90919063ffffffff16565b83613e7f90919063ffffffff16565b601481905550809250505092915050565b6040518060a0016040528060008152602001600081526020016000815260200160006fffffffffffffffffffffffffffffffff16815260200160006fffffffffffffffffffffffffffffffff168152509056fe53746162696c697479506f6f6c3a2063616c6c6572206d757374206861766520616e206163746976652074726f766520746f207769746864726177204554484761696e20746f4f776e61626c653a206e6577206f776e657220697320746865207a65726f206164647265737353746162696c697479506f6f6c3a20546167206d757374206265206120726567697374657265642066726f6e7420656e642c206f7220746865207a65726f206164647265737353746162696c697479506f6f6c3a2043616c6c6572206973206e6f7420416374697665506f6f6c53746162696c697479506f6f6c3a2063616c6c6572206d7573742068617665206e6f6e2d7a65726f20455448204761696e496e697469616c697a61626c653a20636f6e747261637420697320616c726561647920696e697469616c697a656453746162696c697479506f6f6c3a2043616c6c6572206973206e6f742054726f76654d616e6167657253746162696c697479506f6f6c3a2073656e64696e6720455448206661696c6564536166654d6174683a206d756c7469706c69636174696f6e206f766572666c6f7753746162696c697479506f6f6c3a204b69636b6261636b2072617465206d75737420626520696e2072616e6765205b302c315d53746162696c697479506f6f6c3a20416d6f756e74206d757374206265206e6f6e2d7a65726f53746162696c697479506f6f6c3a206d757374206e6f7420616c7265616479206265206120726567697374657265642066726f6e7420656e6453746162696c697479506f6f6c3a2055736572206d7573742068617665206e6f206465706f73697453746162696c697479506f6f6c3a2055736572206d75737420686176652061206e6f6e2d7a65726f206465706f7369744c697175697479536166654d6174683132383a207375627472616374696f6e206f766572666c6f774c697175697479536166654d6174683132383a206164646974696f6e206f766572666c6f7753746162696c697479506f6f6c3a2043616e6e6f74207769746864726177207768696c65207468657265206172652074726f766573207769746820494352203c204d4352a2646970667358221220a48a8dfdc0ecd72139cc60dd5679c4d4d98e95e30e67572d19feadf6985f6d7f64736f6c634300060b0033",
  "linkReferences": {},
  "deployedLinkReferences": {}
}